:060000000A128A11FB2F19
:100ED4007508031D6E2F6F2F7B2F0130F5008312D1
:100EE4000313081488100A128A11AC270A128A11F3
:100EF400852FF50183120313081088140A128A112E
:100F040086270A128A110800831203130715043076
:100F1400F1003D30F000F00B8D2FF10B8D2F922F4F
:100F24008312031307118230F100DD30F000F00B5F
:100F3400992FF10B992F9E2F1A30F2005E30F10099
:100F44006E30F000F00BA42FF10BA42FF20BA42FA2
:100F5400000008008312031307150D30F100FB3065
:100F6400F000F00BB32FF10BB32FB82F8312031340
:100F740007118230F100DD30F000F00BBF2FF10BD0
:100F8400BF2FC42F1A30F2005E30F1006E30F00033
:100F9400F00BCA2FF10BCA2FF20BCA2F0000080066
:100FA4008316031307110614081088108312031301
:100FB40007110814881083120313061CE22FE32F71
:100FC400DD2F0A128A116A270A128A118312031367
:100FD4000618ED2FEE2FE82F4130F400EE30F30029
:100FE400F30BF22FF40BF22F0000DD2F0A128A11FB
:0C0FF4000028F50183010A128A11D22F97
:02400E00723FFF
:00000001FF
