:100000000A128A1110280800FE00030EF3000408EB
:10001000F4000A08F5007F08F6000A168A15332D49
:100020000A128A111328831603170A128A11FF274E
:100030000A128A11CD008317BE308400CD300A1613
:100040008A1587220A128A111030840060300A163D
:100050008A1587220A128A1183160313EF01F7010A
:10006000F801F901FA01FB0183010A168A11432AFA
:1000700083160313560883120313CB00831603134E
:10008000550883120313CA008316031354088312FE
:100090000313C90083160313530883120313C80004
:1000A000831603135C0883120313CF008316031314
:1000B0005B0883120313CE00831603135A088312BE
:1000C0000313CD0083160313590883120313CC00C6
:1000D0000A168A11E9200A128A11031C7028732853
:1000E0000A128A155A2F831603133008BA003A08E9
:1000F000BB00FA1B7C287D2882287A08B400790886
:10010000B30086280630B3000030B4003408BF00C6
:100110003308BE000130BE070318BF0A0030BF0716
:1001200066303B06031D95289628B028C11F9928E4
:100130009A28A4283F30DC008030DB000030DA0051
:100140000030D900C001C10167303A060319A9285F
:10015000AA28B0284008BE070318BF0A4108BF07F5
:10016000C801C9015608CD005508CC005408CB0081
:100170005308CA005C08C7005B08C6005A08C500DF
:100180005908C400FD29831603135C088312031366
:10019000CB00831603135B0883120313CA00831674
:1001A00003135A0883120313C90083160313590853
:1001B00083120313C800831603134D08831203131D
:1001C000CF00831603134C0883120313CE0083164B
:1001D00003134B0883120313CD00831603134A083D
:1001E00083120313CC000A168A11E6230A128A111D
:1001F000831203134B08E5004A08E4004908E300B2
:100200004808E2000A128A114C260A128A11831247
:100210000313650883160313D100831203136408C4
:1002200083160313D000831203136308831603138A
:10023000CF0083120313620883160313CE00510804
:1002400083120313A30083160313500883120313AE
:10025000A200831603134F0883120313A100831611
:1002600003134E0883120313A0000A168A15DD2516
:100270000A128A1183120313210883160313BD0087
:1002800083120313200883160313BC005C08831237
:100290000313B500831603135B0883120313B40022
:1002A000831603135A0883120313B3008316031330
:1002B000590883120313B2008316031351088312E3
:1002C0000313B10083160313500883120313B00005
:1002D000831603134F0883120313AF00831603130F
:1002E0004E0883120313AE000A128A154E210A1219
:1002F0008A11831203133108CB003008CA002F087B
:10030000C9002E08C800831603134D088312031377
:10031000CF00831603134C0883120313CE008316F9
:1003200003134B0883120313CD00831603134A08EB
:1003300083120313CC000A168A1558230A128A1155
:10034000831203134B0883160313CD008312031388
:100350004A0883160313CC0083120313490883163B
:100360000313CB0083120313480883160313CA0038
:10037000413083120313CB002030CA000030C90083
:100380000030C800831603135C0883120313CF00E8
:10039000831603135B0883120313CE008316031323
:1003A0005A0883120313CD008316031359088312CE
:1003B0000313CC000A168A11E6230A128A1183124B
:1003C00003134B0883160313DC00831203134A083C
:1003D00083160313DB0083120313490883160313E8
:1003E000DA0083120313480883160313D90001307F
:1003F000C8070318C90A0030C9074908803A8312A0
:100400000313EC00831603133F08803A831203138F
:100410006C02031D0F2A831603133E084802031CB7
:10042000122A132AC328403083120313B100A030CC
:10043000B0000030AF000030AE00831603135C083C
:1004400083120313B500831603135B08831203138F
:10045000B400831603135A0883120313B3008316E0
:100460000313590883120313B2000A128A154E218E
:100470000A128A1183120313310883160313D10061
:1004800083120313300883160313D000831203135F
:100490002F0883160313CF00831203132E0883162D
:1004A0000313CE004D0883120313CB0083160313EE
:1004B0004C0883120313CA00831603134B088312DC
:1004C0000313C900831603134A0883120313C800D9
:1004D00083160313510883120313CF0083160313EB
:1004E000500883120313CE00831603134F088312A0
:1004F0000313CD00831603134E0883120313CC009D
:100500000A168A11E9200A128A110318882A892AF0
:10051000942A003083160313D1000030D00000303D
:10052000CF000030CE00DB2A831603134D08831260
:100530000313A300831603134C0883120313A200B2
:10054000831603134B0883120313A10083160313AE
:100550004A0883120313A000831603135108831261
:100560000313A70083160313500883120313A60076
:10057000831603134F0883120313A5008316031376
:100580004E0883120313A4000A168A15E3240A12E4
:100590008A11031CCC2ACD2ADB2A831603133C18AC
:1005A000D22AD32ADB2A0030D1000030D00000301C
:1005B000CF000030CE0083160313510883120313BB
:1005C000A30083160313500883120313A20083169B
:1005D00003134F0883120313A100831603134E085D
:1005E00083120313A0008316031356088312031308
:1005F000A70083160313550883120313A60083165E
:100600000313540883120313A5008316031353081E
:1006100083120313A4000A168A11B0250A128A1144
:1006200083120313230883160313CD0083120313CD
:10063000220883160313CC008312031321088316A8
:100640000313CB0083120313200883160313CA007D
:100650004D0883120313CB00831603134C08831237
:100660000313CA00831603134B0883120313C90034
:10067000831603134A0883120313C8004130B100E4
:100680002030B0000030AF000030AE0083160313FE
:10069000470883120313B500831603134608831219
:1006A0000313B40083160313450883120313B30026
:1006B00083160313440883120313B2000A128A1527
:1006C0004E210A128A11831203133108CF00300819
:1006D000CE002F08CD002E08CC000A168A11E92082
:1006E0000A128A11031C752B762BC92B0130831635
:1006F0000313C0070318C10A0030C1074130831239
:100700000313B1002030B0000030AF000030AE0065
:1007100083160313470883120313B50083160313CC
:10072000460883120313B40083160313450883128B
:100730000313B30083160313440883120313B20098
:100740000A128A154E210A128A11831203133108E4
:1007500083160313C7008312031330088316031391
:10076000C600831203132F0883160313C5008312D8
:1007700003132E0883160313C40066303B06031DC3
:10078000C22BC32BC92B0130BE070318BF0A003090
:10079000BF07831603134708DC004608DB00450843
:1007A000DA004408D9004108B2004008B100B9019C
:1007B000B501B601C801C9019F2D831603135C085A
:1007C00083120313CB00831603135B0883120313F6
:1007D000CA00831603135A0883120313C900831631
:1007E0000313590883120313C800831603134D081B
:1007F00083120313CF00831603134C0883120313D1
:10080000CE00831603134B0883120313CD00831607
:1008100003134A0883120313CC000A168A11E62335
:100820000A128A11831203134B08E5004A08E400F8
:100830004908E3004808E2000A128A114C260A120D
:100840008A1183120313650883160313D1008312E0
:100850000313640883160313D00083120313630881
:1008600083160313CF008312031362088316031346
:10087000CE00510883120313A300831603135008FC
:1008800083120313A200831603134F08831203136A
:10089000A100831603134E0883120313A0000A1647
:1008A0008A15DD250A128A11831203132108803A62
:1008B000FF0080307F02031D5F2C0A3020020318E6
:1008C000622C632C8D2C831603135108831203139F
:1008D000A30083160313500883120313A200831688
:1008E00003134F0883120313A100831603134E084A
:1008F00083120313A0000A168A15DD250A128A1135
:1009000083120313210883160313BD0083120313FC
:10091000200883160313BC00932C0930831603139D
:10092000BC000030BD003908031D972C982CC92C41
:10093000B21F9B2C9C2CC92C5708103E84002E30D3
:10094000831780000130D7070318D80A0030D80772
:10095000FF30C2070318C30AFF30C3070130B900D4
:10096000C92C5708103E84003030831780000130B6
:10097000D7070318D80A0030D807FF30C20703187A
:10098000C30AFF30C307FF30B5070318B60AFF30AC
:10099000B60735083604031DCE2CCF2CB12C5708D2
:1009A000103E84003C08303E831780000130D7079A
:1009B0000318D80A0030D807FF30C2070318C30A4B
:1009C000FF30C3075C0883120313B50083160313BB
:1009D0005B0883120313B400831603135A088312AF
:1009E0000313B30083160313590883120313B200D1
:1009F00083160313510883120313B10083160313E4
:100A0000500883120313B000831603134F08831298
:100A10000313AF00831603134E0883120313AE00B3
:100A20000A128A154E210A128A1183120313310801
:100A3000CB003008CA002F08C9002E08C800831652
:100A400003134D0883120313CF00831603134C08BE
:100A500083120313CE00831603134B088312031370
:100A6000CD00831603134A0883120313CC000A1621
:100A70008A1558230A128A11831203134B0883160E
:100A80000313CD00831203134A0883160313CC000B
:100A900083120313490883160313CB008312031335
:100AA000480883160313CA00413083120313CB0096
:100AB0002030CA000030C9000030C800831603137C
:100AC0005C0883120313CF00831603135B088312A1
:100AD0000313CE00831603135A0883120313CD00A9
:100AE00083160313590883120313CC000A168A11C4
:100AF000E6230A128A11831203134B088316031389
:100B0000DC00831203134A0883160313DB008312ED
:100B10000313490883160313DA00831203134808EA
:100B200083160313D900FF30B1070318B20AFF3050
:100B3000B2070130C8070318C90A0030C9074908BD
:100B4000803A83120313EC00831603133F08803AA4
:100B5000831203136C02031DB12D831603133E0889
:100B600048020318B42DB52DC42D8316031358085D
:100B7000803AFF0080307F02031DC02D4B305702AA
:100B8000031CC32DC42DDD2B4F3083160313C80067
:100B90000030C9004808103E8400831780011030DF
:100BA00083120313EC0083160313570883120313F5
:100BB000EC02831603134808831203136C07A0008A
:100BC0001030A10083160313580883120313A300E7
:100BD00083160313570883120313A2000A168A15FB
:100BE00012230A128A118316031357084802D700EA
:100BF0005808031C580A4902D8005208031D012E48
:100C0000032E0130042E003083120313EC00ED019B
:100C10006C0883160313C800831203136D08831630
:100C20000313C90052080319162E172E232EFF3066
:100C3000D7070318D80AFF30D8075708103E84009A
:100C40005208831780004808C2024908031CC303E6
:100C5000C3022A0883120313B500831603132B085B
:100C600083120313B600831603135708103E831232
:100C70000313B70083160313430883120313B90049
:100C800083160313420883120313B8000A128A154D
:100C90000E200A128A1108008316031741088316D2
:100CA0000313A90083160317400883160313A80033
:100CB000831603173F0883160313A7008316031731
:100CC0003E0883160313A6008312031365088316D8
:100CD0000313A90083120313640883160313A800E7
:100CE00083120313630883160313A70083120313ED
:100CF000620883160313A600260883120313E60076
:100D000083160313270883120313E70083160313C4
:100D1000280883120313E80083160313290883129B
:100D20000313E90017300310E90CE80CE70CE60C9C
:100D3000FF3E031D932EFF306605EA000030670575
:100D4000EB006A08813E83160313A4008312031389
:100D50006B080318013EFF3E83160313A500250808
:100D6000803AFF0080307F02031DB82E1730240226
:100D7000031CBB2EBC2EBD2EFE2F83160313A51BFA
:100D8000C22EC32E812F240AFF00FF3083120313CB
:100D9000E600FF30E7007F30E8000030E900D52EA4
:100DA000690DE90CE80CE70CE60CFF0BD02E690886
:100DB00083160313A3008312031368088316031317
:100DC000A20083120313670883160313A100831282
:100DD0000313660883160313A00020082605831258
:100DE0000313E60083160313210827058312031358
:100DF000E700831603132208280583120313E80073
:100E0000831603132308290583120313E9006908D5
:100E1000680467046604031D0E2F0F2F102FBC2ECD
:100E200083160313260883120313E60083160313A5
:100E3000270883120313E70083160313280883127D
:100E40000313E80083160313290883120313E90030
:100E50001F300310E90CE80CE70CE60CFF3E031D05
:100E6000292F69086804670466040319382F392F8D
:100E7000522F831603132008A60721080311031815
:100E8000013E0319442FA707220803110318013E4E
:100E900003194B2FA807230803110318013E031958
:100EA000522FA90783160313200983120313E600A8
:100EB00083160313210983120313E7008316031318
:100EC000220983120313E8008316031323098312F4
:100ED0000313E900660883160313A60583120313A0
:100EE000670883160313A705831203136808831684
:100EF0000313A80583120313690883160313A905B6
:100F0000E62F260883120313E6008316031327082F
:100F100083120313E70083160313280883120313B5
:100F2000E80083160313290883120313E9001F3016
:100F30000310E90CE80CE70CE60CFF3E031D982FAC
:100F40006908680467046604031DA72FA82FB32F40
:100F5000003083160313A9000030A8000030A7005A
:100F60000030A600E62F831603132608831203130E
:100F7000E60083160313270883120313E700831682
:100F80000313280883120313E800831603132908A8
:100F900083120313E90001300310E60DE70DE80D9D
:100FA000E90DFF3E031DCC2F690868046704660441
:100FB0000319DB2FDC2FE62FBF3083160313A900A4
:100FC0008030A8000030A7000030A600831603136D
:100FD000290883120313E5008316031328088312DC
:100FE0000313E40083160313270883120313E3009B
:100FF00083160313260883120313E200080001344A
:1010020083120313230822042104200403190A284B
:101012000B280D288030A306080083120313B91F82
:10102200132814281628B801B901BB01BC013028C5
:10103200203083120313A0000030A1003508A20063
:101042003608A3000A168A1560270A128A1501308B
:1010520083120313BB070318BC0A0030BC073C0809
:10106200803ABA003908803A3A02031D3A28380811
:101072003B02031C3D283E2819288312031337081C
:10108200AD003508AE003608AF000A168A15F12306
:101092000A128A150800831603135F08840083135B
:1010A200000884000A168A110A200A128A15253AB3
:1010B200031D5C285D2826295F0884000130800713
:1010C200F701F8010030EF00FF30F900FF30FA00BD
:1010D2005F088400000884000A168A110A200A1296
:1010E2008A152E3A031D7628772890285F088400F7
:1010F200013080075F0883120313A60083160313CF
:10110200600883120313A7000A168A1585250A129E
:101112008A15831203132708FA002608F90083169A
:1011220003135F08840083130008E8006808840042
:101132000A168A110A200A128A15E700A828013025
:10114200E807B3286C30E700B328E701B328670843
:101152004C3A0319A0282A3A0319A3280A3A031978
:10116200A028A628680884000A168A110A200A12F2
:101172008A15663A031DBE28BF281E29EA28600880
:10118200840083170008FF00043080077F08840072
:101192000008E300840A0008E400840A0008E5006D
:1011A200840A0008E600F228600884008317000819
:1011B200FF00043080077F0884000008E300840AEF
:1011C2000008E400840A0008E500840A0008E6003A
:1011D200F22867084C3A0319D528203A0319C02887
:1011E200F2285F0884006808013E831380001329F7
:1011F2005D08AA005E08AB006608AF006508AE0095
:101202006408AD006308AC00680884000A168A11FD
:101212000A200A128A15B0000A128A1590240A12AC
:101222008A154D29680884000A168A110A200A12B2
:101232008A15663A0319F9281E29831603135F08D3
:1012420084000130831380074D295F088400000861
:1012520084000A168A110A200A128A15E100E201A4
:10126200610883120313A00083160313620883121A
:101272000313A100831603135D0883120313A20054
:10128200831603135E0883120313A3000A168A153A
:1012920060270A128A151E290800831203133108D7
:1012A200BB008030BB053108B6003607C100B01F55
:1012B2005B295C295D2941144108031961296229CE
:1012C2007129410A031D662967296F290030B1007F
:1012D2000030B0000030AF000030AE00B017792906
:1012E2000030B1000030B0000030AF000030AE007E
:1012F20035088039BB063508B6003607C000B41F72
:1013020083298429852940144008031989298A29B7
:101312009929400A031D8E298F2997290030B5008B
:101322000030B4000030B3000030B200B417A1297D
:101332000030B5000030B4000030B3000030B2001D
:1013420040080319A529A629AB294108031DAA298A
:10135200AB29B4290030B1000030B0000030AF003A
:101362000030AE008F2C2E08A00034080A168A1115
:10137200C0200A128A15831203132108C70020080D
:10138200C6004608B600B701B801B9013908BF0066
:101392003808BE003708BD003608BC004708B60052
:1013A200B701B801B9013908C5003808C4003708C7
:1013B200C3003608C2002F08A00033080A168A119B
:1013C200C0200A128A15831203132108C7002008BD
:1013D200C6004608B600B701B801B9013608BC0715
:1013E200370803110318013E0319F829BD0738080D
:1013F20003110318013E0319FF29BE07390803111F
:101402000318013E0319062ABF074708B600B701B1
:10141200B801B9013608C207370803110318013EA3
:101422000319142AC307380803110318013E0319CC
:101432001B2AC407390803110318013E0319222A83
:10144200C5073008A00032080A168A11C0200A1205
:101452008A15831203132108C7002008C600460814
:10146200B600B701B801B9013608BC073708031145
:101472000318013E03193E2ABD0738080311031859
:10148200013E0319452ABE07390803110318013E1C
:1014920003194C2ABF074708B600B701B801B901C2
:1014A2003608C207370803110318013E03195A2AE6
:1014B200C307380803110318013E0319612AC40740
:1014C200390803110318013E0319682AC5070830B9
:1014D200B6000310BC0DBD0DBE0DBF0DB60B6A2AC2
:1014E2002F08A00032080A168A11C0200A128A1593
:1014F200831203132108C7002008C6004608B6005D
:101502004708B700B801B9013608BC07370803110C
:101512000318013E03198E2ABD0738080311031868
:10152200013E0319952ABE07390803110318013E2B
:1015320003199C2ABF072E08A00033080A168A1135
:10154200C0200A128A15831203132108C70020083B
:10155200C6004608B6004708B700B801B901360808
:10156200BC07370803110318013E0319B92ABD0746
:10157200380803110318013E0319C02ABE073908AF
:1015820003110318013E0319C72ABF070830B6002A
:101592000310BC0DBD0DBE0DBF0DB60BC92A2E0822
:1015A200A00032080A168A11C0200A128A15831274
:1015B20003132108C7002008C6004608B6004708E2
:1015C200B700B801B9013608BC0737080311031880
:1015D200013E0319ED2ABD07380803110318013E25
:1015E2000319F42ABE07390803110318013E03192F
:1015F200FB2ABF072F08A00034080A168A11C02050
:101602000A128A15831203132108C7002008C60094
:101612004608B6004708B700B801B9013608C20744
:10162200370803110318013E0319182BC3073808A2
:1016320003110318013E03191F2BC40739080311B4
:101642000318013E0319262BC5073008A0003308F2
:101652000A168A11C0200A128A158312031321085E
:10166200C7002008C6004608B6004708B700B80100
:10167200B9013608C207370803110318013E0319DE
:10168200432BC307380803110318013E03194A2BE1
:10169200C407390803110318013E0319512BC5076A
:1016A2003008A00034080A168A11C0200A128A15CE
:1016B200831203132108C7002008C6004608B6009B
:1016C2004708B700B801B90108300310B60DB70DCD
:1016D200B80DB90DFF3E031D662B3608C207370849
:1016E20003110318013E0319772BC30738080311AE
:1016F2000318013E03197E2BC4073908031103188E
:10170200013E0319852BC5073C08B6003D08B7000A
:101712003E08B8003F08B90018300310B90CB80CE5
:10172200B70CB60CFF3E031D8E2B3608C2073708D6
:1017320003110318013E03199F2BC3073808031135
:101742000318013E0319A62BC40739080311031815
:10175200013E0319AD2BC5070830B6000310BC0DBE
:10176200BD0DBE0DBF0DB60BAF2B41084007B60035
:10177200B701B70D3608823EC60037080318013E8E
:10178200FF3EC700E12B0130B6000310C20DC30DAE
:10179200C40DC50DB60BC62BBF1FD02BD12BD22B20
:1017A20042140130B6000310BC0DBD0DBE0DBF0DBD
:1017B200B60BD42BFF30C6070318C70AFF30C70782
:1017C200C41FE42BE52BC42BC001BF1FE92BEA2B5E
:1017D200062CFF303C05B600FF303D05B700FF3058
:1017E2003E05B8007F303F05B90039083804370498
:1017F20036040319FD2BFE2B012C0130C000062CF0
:10180200421C042C052C062CFE2B400803190A2C22
:101812000B2C3C2C0130C207003003180130C307E7
:10182200003003180130C407003003180130C50727
:10183200451C1C2C1D2C3C2C4208B6004308B7004A
:101842004408B8004508B9000130BA00390DB90C96
:10185200B80CB70CB60CBA0B272C3908C5003808DF
:10186200C4003708C3003608C2000130C607031897
:10187200C70A0030C7074708803AFF0080307F025E
:10188200031D452CFF304602031C482C492C542CC6
:101892007F3083120313C5008030C4000030C300C0
:1018A2000030C200852C831203134708803AFF00E0
:1018B20080307F02031D5F2C013046020318622C28
:1018C200632C6F2C003083120313C5000030C40058
:1018D2000030C3000030C200BB01852C8312031309
:1018E2004608C100FF30C205FF30C3057F30C40582
:1018F2000030C505411C7E2C7F2C802CC41741086A
:10190200B6000310360CC5003B08C5044508B100FB
:101912004408B0004308AF004208AE000800831636
:101922000313D2012F08D6002E08D5002D08D400AB
:101932002C08D300560883120313CB00831603131B
:10194200550883120313CA00831603135408831223
:101952000313C90083160313530883120313C80029
:101962000030CF000030CE000030CD000030CC007F
:101972000A168A11E9200A128A150318C12CC22CF0
:10198200F92C013083160313D20056088312031375
:10199200A30083160313550883120313A2008316B0
:1019A2000313540883120313A1008316031353086D
:1019B20083120313A0000A128A1501200A128A1543
:1019C20083120313230883160313D600831203130F
:1019D200220883160313D5008312031321088316EA
:1019E2000313D40083120313200883160313D300B6
:1019F20083160313D701D8017808C3007708C20001
:101A020052080319052D062D162D5208031D0A2D05
:101A12000B2D102D2B30B7000030B800142D2D30B7
:101A2200B7000030B8003708D200560883120313FB
:101A3200A30083160313550883120313A20083160F
:101A42000313540883120313A100831603135308CC
:101A520083120313A0000A168A15D3260A128A15C6
:101A62008312031320032104031D382D392D842DE5
:101A720083160313520803193F2D402D502D52088F
:101A8200831203179000FF3083160313C207031853
:101A9200C30AFF30C3070130D7000030D80057080F
:101AA200103E83120313A000A830A1000A168A1563
:101AB200F7220A128A15FD3083160313C207031890
:101AC200C30AFF30C3072A0883120313B500831623
:101AD20003132B0883120313B6001030B7008316CA
:101AE2000313430883120313B90083160313420836
:101AF20083120313B8000A128A150E200A128A15DD
:101B02000A128A114B2E83160313560883120313EB
:101B1200A30083160313550883120313A20083162E
:101B22000313540883120313A100831603135308EB
:101B320083120313A0000A168A15D3260A128A15E5
:101B42008312031320082104031DA82DA92DCD2DD6
:101B52008316031352080319AF2DB02DC02D52085E
:101B6200831203179000FF3083160313C207031872
:101B7200C30AFF30C3070130D7000030D80057082E
:101B8200103E83120313A000AC30A1000A168A157E
:101B9200F7220A128A155C2D3F3083160313DC00EC
:101BA2008030DB000030DA000030D900C001C10112
:101BB200560883120313A3008316031355088312D6
:101BC2000313A20083160313540883120313A10004
:101BD20083160313530883120313A0000030A700D7
:101BE2000030A6000030A5000030A4000A168A15B5
:101BF200E3240A128A150318FF2D022E0A128A11F3
:101C02007328132E831603134708DC004608DB00F3
:101C12004508DA004408D9000130C0070318C10A98
:101C22000030C107413083120313B1002030B000ED
:101C32000030AF000030AE00831603135C0883123D
:101C42000313B500831603135B0883120313B40056
:101C5200831603135A0883120313B3008316031364
:101C6200590883120313B2000A128A154E210A126E
:101C72008A1583120313310883160313C7008312D4
:101C82000313300883160313C600831203132F08AD
:101C920083160313C500831203132E08831603133E
:101CA200C400530883120313EC0083160313540871
:101CB20083120313ED0083160313550883120313D3
:101CC200EE0083160313560883120313EF008316E4
:101CD2000313440883120313EC028316031345080B
:101CE200031C450F752E782E83120313ED02831603
:101CF20003134608031C460F7F2E822E8312031302
:101D0200EE02831603134708031C470F892E8C2EFD
:101D120083120313EF0283160313831203136F0854
:101D2200A3006E08A2006D08A1006C08A0000A16AC
:101D32008A15E0220A128A1583120313A31BB12EFD
:101D42002308031DB22E2208031DB22E2108031DF3
:101D5200B22E02302002031DAE2E031CB12EB22E73
:101D6200032E83160313470883120313CB00831633
:101D72000313460883120313CA008316031345088C
:101D820083120313C9008316031344088312031337
:101D9200C80083160313560883120313CF00831659
:101DA2000313550883120313CE008316031354083A
:101DB20083120313CD0083160313530883120313F4
:101DC200CC000A168A11E9200A128A15031CEA2E8F
:101DD200EB2E032E83160313530883120313EC0016
:101DE20083160313540883120313ED00831603139F
:101DF200550883120313EE00831603135608831249
:101E02000313EF0083160313590883120313EC0222
:101E1200831603135A08031C5A0F102F132F831211
:101E22000313ED02831603135B08031C5B0F1A2FC7
:101E32001D2F83120313EE02831603135C08031C87
:101E42005C0F242F272F83120313EF028316031331
:101E5200831203136F08A3006E08A2006D08A1008D
:101E62006C08A0000A168A15E0220A128A1583124B
:101E72000313A31B4F2F2308031D4C2F2208031DFE
:101E82004C2F2108031D4C2F02302002031D492F25
:101E920003184C2F4F2F0A128A1138288316031366
:101EA2005C08D6005B08D5005A08D4005908D30054
:101EB200FF2D413083120313CB002030CA000030C3
:101EC200C9000030C800831603135C088312031391
:101ED200CF00831603135B0883120313CE0083160D
:101EE20003135A0883120313CD00831603135908F0
:101EF20083120313CC000A168A11E6230A128A15EA
:101F0200831203134B0883160313DC00831203139B
:101F12004A0883160313DB0083120313490883164E
:101F22000313DA0083120313480883160313D9003C
:101F3200FF30C0070318C10AFF30C10753088312DC
:101F42000313EC0083160313540883120313ED00EA
:101F520083160313550883120313EE00831603132B
:101F6200560883120313EF008316031359088312D2
:101F72000313EC02831603135A08031C5A0FC22FD1
:101F8200C52F83120313ED02831603135B08031C90
:101F92005B0FCC2FCF2F83120313EE028316031392
:101FA2005C08031C5C0FD62FD92F83120313EF0298
:101FB20083160313831203136F08A3006E08A20093
:101FC2006D08A1006C08A0000A168A15E0220A1208
:101FD2008A1583120313A31BFF2F2308031DFE2F51
:101FE2002208031DFE2F2108031DFE2F02302002AE
:101FF200031DFB2F0318FE2FFF2F4C2F4F2FFF1B0C
:102002000A2883137F1883170008840A0319FF0A1A
:10201200080010308A000408840A8207003453340E
:102022006534723476346F342034663475346E34E9
:10203200633469346F346E3461346E3464346F34B3
:10204200203463346F3472347234653463347434DC
:1020520061346D3465346E34743465340A3400345A
:1020620043346F346D3461346E3464346F3473349A
:102072003A34203441343D34413462347234693468
:1020820072342C34203443343D3443346534723456
:102092007234613472340A3400343D343D343D3498
:1020A2002034533449345334543445344D34413458
:1020B200203449344E34493443344934413444346D
:1020C2004F3420343D343D343D340A3400344234FC
:1020D2006F3474346F346E34203470347234653437
:1020E200733469346F346E34613464346F340A3457
:1020F200003443346F346D3461346E3464346F347D
:102102003A34203443344534523452344134523414
:102112000A34003443346F346D3461346E346434C1
:102122006F343A34203441344234523449345234D4
:102132000A34003454343A3425342E34313466347B
:102142000A34003446343A3430340A3400344634E3
:102152003A3431340A34003453343A3441340A3490
:10216200003453343A3443340A34003469346E341C
:0C217200663400346E3461346E34003486
:1021800083120313A800A401A5012008A200A30143
:102190002208A6002308A700281CCF28D028D6286C
:1021A0002608A4070318A50A2708A507013003106D
:1021B000A60DA70DFF3E031DD7280310A80C280865
:1021C000031DE328E428CC282508A1002408A0004A
:1021D00008000030831203134805D0000030490581
:1021E000D10080304A05D2007F304B05D300530820
:1021F000520451045004031DFE28FF280729003013
:10220000CB000030CA000030C9000030C8000030E8
:102210004C05D00000304D05D10080304E05D20075
:102220007F304F05D3005308520451045004031D5E
:102230001A291B2923290030CF000030CE0000309E
:10224000CD000030CC00CB1F262927294B29003098
:10225000D0000030D1000030D2008030D3004808D8
:10226000D0024908031C490F36293729D1024A08F0
:10227000031C4A0F3C293D29D2024B08031C4B0F7B
:1022800042294329D3025308CB005208CA005108FF
:10229000C9005008C800CF1F4E294F2973290030AC
:1022A000D0000030D1000030D2008030D3004C0884
:1022B000D0024D08031C4D0F5E295F29D1024E0844
:1022C000031C4E0F64296529D2024F08031C4F0FCF
:1022D0006A296B29D3025308CF005208CE00510857
:1022E000CD005008CC008030CB068030CF064F08A0
:1022F0004B02031D85294E084A02031D85294D08FE
:102300004902031D85294C08480203188829892998
:102310008B2903108C290314080083120313A800CF
:102320002808031994299529A929A31F98299929CF
:10233000A9292009AA002109AB002209AC00230920
:10234000AD00AA0A0319AB0A0319AC0A0319AD0AB6
:10235000B1292308AD002208AC002108AB002008F9
:10236000AA002308220421042004031DB829B92946
:10237000C2290030A3000030A2000030A1000030CC
:10238000A000422A9630A900D0290130A9070130C7
:102390000310AD0CAC0CAB0CAA0CFF3E031DC829FE
:1023A000FE302D05031DD529D629C529F029013078
:1023B000A9070130AA07003003180130AB0700302D
:1023C00003180130AC07003003180130AD070130AD
:1023D0000310AD0CAC0CAB0CAA0CFF3E031DE8299E
:1023E000FF302D05031DF529F629D729022A0130D2
:1023F000A9020130A4000310AA0DAB0DAC0DAD0D68
:10240000A40BFB29AC1B052A062A0C2A0230290240
:1024100003180B2A0C2AF72929180F2A102A182A20
:10242000FF30AA05FF30AB057F30AC05FF30AD05AE
:102430000310A90C2908A400A501A601A7011830C2
:102440000310A40DA50DA60DA70DFF3E031D202A08
:102450002408AA042508AB042608AC042708AD0408
:1024600028080319342A352A3A2AA31F382A392A78
:102470003A2AAD172D08A3002C08A2002B08A100B2
:102480002A08A00008000130831603138600880183
:1024900083120313860188010A168A1580220A1600
:1024A0008A110A168A15A3220A168A110A168A1593
:1024B000AF220A168A110A168A1579220A168A117B
:1024C000831603138C160B160B178B178316031723
:1024D000CC014C080A168A15CC220A168A113F3004
:1024E00083120313A1008030A2000A168A15C923A3
:1024F0000A168A11013083120313A1008030A20052
:102500000A168A15C9230A168A1122308312031368
:10251000A1008030A2000A168A15C9230A168A1162
:1025200083160317B901BA01BB01BC01BD018B1CA5
:102530009A2A9B2AEB2A831603173D08031DA12A1A
:10254000A22AEB2A023083160317A4004530A30009
:10255000A930A200A20BAA2AA30BAA2AA40BAA2A7A
:1025600083120313061CB52AB62AEA2A0A168A150C
:10257000BC220A168A11593083120313A10080303D
:10258000A2000A168A15C9230A168A110130831679
:102590000317BD00D62A413083160317A300ED3080
:1025A000A200A20BD12AA30BD12AD62A831203138D
:1025B0000618DB2ADC2ACB2A023083160317A40074
:1025C0004530A300A930A200A20BE42AA30BE42A01
:1025D000A40BE42A8B10831203130618F02AF12AA5
:1025E000F42A83160317BD01831603174D08031938
:1025F000FA2AFB2A042B4C080A168A15CC220A1642
:102600008A1183160317CD010130B9070318BA0ADE
:102610000030BA0703303A02E83003193902031CCC
:10262000122B132B392B0A168A1553260A168A11D8
:1026300083120313650883160317C900831203135B
:10264000640883160317C8008312031363088316F4
:102650000317C70083120313620883160317C6000B
:102660000A168A1547240A168A1183160317B90118
:10267000BA014B0803193D2B3E2B532B8312031336
:102680000810013083160317CA0765304A02031C7D
:102690004A2B4B2B6C2B02308312031388068316B4
:1026A0000317CA016C2B4C030319572B5B2B8312A6
:1026B000031308145E2B83120313081083160317E9
:1026C0004C080319642B682B8312031388146B2B9B
:1026D0008312031388104F2B0130BB070318BC0A69
:1026E0000030BC0701303C02F43003193B02031CEC
:1026F0007A2B7B2BD72B4C03031D7F2B802B8C2B12
:102700009E3083120313A1008030A2000A168A159E
:10271000C9230A168A11972BA33083120313A10031
:102720008030A2000A168A15C9230A168A11A5301C
:102730008316031790008C309100490895004808D3
:10274000940047089300460892000A168A151C2434
:102750000A168A11A53083120313A1000130A200CA
:102760000A168A15C9230A168A11831603174B08FD
:102770000319BB2BBC2BC82B993083120313A10068
:102780008030A2000A168A15C9230A168A11D32B93
:10279000943083120313A1008030A2000A168A1518
:1027A000C9230A168A1183160317BB01BC0107301F
:1027B00083160317A3007C30A200A20BDD2BA30B12
:1027C000DD2B0000972A0A128A11102883120313A6
:1027D0004F08D9008030D9054F08D0005007E000DD
:1027E000CE1FF32BF42BF52B601460080319F92B83
:1027F000FA2B0A2C600A031DFE2BFF2B072C00303E
:10280000CF000030CE000030CD000030CC00CE171D
:10281000CF01122C0030CF000030CE000030CD00B0
:102820000030CC004B088039D9064B08D000500747
:10283000E100CA1F1C2C1D2C1E2C611461080319F9
:10284000222C232C332C610A031D272C282C302CFE
:102850000030CB000030CA000030C9000030C80092
:10286000CA17CB013B2C0030CB000030CA0000302F
:10287000C9000030C8004B084A0449044804031D3D
:10288000422C432C5A2C0030CF000030CE000030B8
:10289000CD000030CC008030CE047F30CF0459080A
:1028A000CF044F08CB004E08CA004D08C9004C08A1
:1028B000C800AF2D6008031D5E2C5F2C682C003013
:1028C000CB000030CA000030C9000030C800AF2D76
:1028D0006008D000D1015108D30061085002D20035
:1028E000031CD30352087F3EDA0053080318013E4D
:1028F000003EDB004F08D8004E08D7004D08D60038
:102900004C08D5000030CF000030CE000030CD00A4
:102910000030CC000030DF000030DE000030DD0091
:102920000030DC00E101DC2C61080319982C992CA3
:10293000B92C0130D0000310D50DD60DD70DD80D10
:10294000D00B9B2C0130D0000310CC0DCD0DCE0D43
:10295000CF0DD00BA42CDF1FAE2CAF2CB02C4C1401
:102960000130D0000310DC0DDD0DDE0DDF0DD00BCE
:10297000B22C4B085802031DC72C4A085702031DEE
:10298000C72C49085602031DC72C48085502031CD2
:10299000CA2CCB2CDA2C5F174808D5024908031C37
:1029A000490FD6024A08031C4A0FD7024B08031CE2
:1029B0004B0FD8020130E1071A306102031CE12CF1
:1029C000E22C942C58085704560455040319E92C9A
:1029D000EA2C092D5C14092D0130D0000310CC0D18
:1029E000CD0DCE0DCF0DD00BEE2CDF1FF82CF92C1A
:1029F000FA2C4C140130D0000310DC0DDD0DDE0D7F
:102A0000DF0DD00BFC2CFF30DA070318DB0AFF3098
:102A1000DB07CE1F0C2D0D2DEC2CE101DF1F112D3E
:102A2000122D2E2DFF305C05D000FF305D05D1004A
:102A3000FF305E05D2007F305F05D300530852049B
:102A4000510450040319252D262D292D0130E100B4
:102A50002E2D4C1C2C2D2D2D2E2D262D61080319CD
:102A6000322D332D642D0130CC0700300318013096
:102A7000CD07003003180130CE07003003180130B5
:102A8000CF074F1C442D452D642D4C08D0004D0818
:102A9000D1004E08D2004F08D3000130D400530DAE
:102AA000D30CD20CD10CD00CD40B4F2D5308CF002B
:102AB0005208CE005108CD005008CC000130DA0792
:102AC0000318DB0A0030DB075B08803AFF00803028
:102AD0007F02031D6D2DFF305A02031C702D712DD6
:102AE0007F2DFF3083120313DA000030DB0000304B
:102AF000CF000030CE000030CD000030CC0083127B
:102B000003135B08803AFF0080307F02031D8A2D8B
:102B100001305A0203188D2D8E2D9B2D8312031325
:102B2000DA01DB010030CF000030CE000030CD00F4
:102B30000030CC00D901831203135A08E000601C56
:102B4000A22DA32DA52DCE17A72D7F30CE05600871
:102B5000D0000310500CCF005908CF04512C0800AE
:102B6000831203132308B0008030B0052308A800A7
:102B70002807B200A21FBD2DBE2DBF2D3214320872
:102B80000319C32DC42DD42D320A031DC82DC92D00
:102B9000D12D0030A3000030A2000030A100003091
:102BA000A000A217A301DC2D0030A3000030A2007A
:102BB0000030A1000030A0002708B1008030B1052E
:102BC000310830060319E52DE62DE72D30172708CB
:102BD000A8002807B100A61FEE2DEF2DF02D31140F
:102BE00031080319F42DF52D052E310A031DF92D99
:102BF000FA2D022E0030A7000030A6000030A500FC
:102C00000030A400A617A7010D2E0030A700003049
:102C1000A6000030A5000030A400320831020318DD
:102C2000122E132E372E301F162E172E192E8030EF
:102C3000B0063208B3003108B2003308B1002008F2
:102C4000B3002408A0003308A4002108B30025081D
:102C5000A1003308A5002208B3002608A20033080B
:102C6000A6002308B3002708A3003308A700B30178
:102C70003108A800A9012908AB0032082802AA00DF
:102C8000031CAB032B08803AFF0080307F02031D3A
:102C90004B2E1A302A02031C4E2E4F2E842E8312E6
:102CA00003132308220421042004031D582E5A2E46
:102CB00001305B2E0030B3000030A3000030A200D2
:102CC0000030A1000030A0003108B2008C2E331C6F
:102CD0006A2E6B2E722E3308A8000310280C0138C0
:102CE000B300742E0310B30C201C772E782E792E8F
:102CF000B3170130A800230DA30CA20CA10CA00C4B
:102D0000A80B7B2E0130B207831203133108320265
:102D1000031C8B2E8C2E672E301B8F2E902ED72EC1
:102D20003208031D942E952E9E2E0030A3000030F5
:102D3000A2000030A1000030A000FF2F2408A0074F
:102D4000250803110318013E0319A72EA107260821
:102D500003110318013E0319AE2EA2072708031121
:102D60000318013E0319B52EA307231CB82EB92E54
:102D70008B2F331CBC2EBD2EC42E3308A80003108D
:102D8000280C0138B300C62E0310B30C201CC92E2A
:102D9000CA2ECB2EB3170130A800230DA30CA20C12
:102DA000A10CA00CA80BCD2E0130B2078B2F23084D
:102DB000803AFF002708803A7F02031DE92E26088B
:102DC0002202031DE92E25082102031DE92E2408F5
:102DD00020020318EC2EED2E442FFF30A800FF3008
:102DE000A900FF30AA00FF30AB002408AC00250882
:102DF000AD002608AE002708AF002008AC0221086D
:102E0000031C210F042F052FAD022208031C220FE3
:102E10000A2F0B2FAE022308031C230F102F112F94
:102E2000AF022C08A8072D0803182D0F182F192FF3
:102E3000A9072E0803182E0F1E2F1F2FAA072F08D1
:102E400003182F0AAB072B08A3002A08A2002908A1
:102E5000A1002808A0008030B0063303FF3AB30079
:102E60003308031D342F352F522F0130A0070030B7
:102E700003180130A107003003180130A207003009
:102E800003180130A307522F2408A0022508031CB1
:102E9000250FA1022608031C260FA2022708031CE7
:102EA000270FA3022308220421042004031D592F05
:102EB0005A2F872F3308031D5E2F5F2F872F003077
:102EC000A3000030A2000030A1000030A000FF2FBE
:102ED0000130A8000310A00DA10DA20DA30DA80B99
:102EE0006A2FB31F742F752F762F2014331C792F60
:102EF0007A2F7E2F0314330DB300802F0310B30DF0
:102F000032080319842F852F872F0130B202A21FA8
:102F10008A2F8B2F682FB101B31F8F2F902F9E2FD9
:102F200033087F390319952F962F992F0130B1005F
:102F30009E2F201C9C2F9D2F9E2F962F310803190A
:102F4000A22FA32FD52F0130A00700300318013086
:102F5000A107003003180130A20700300318013028
:102F6000A307231CB42FB52FD52F2008A8002108B4
:102F7000A9002208AA002308AB000130AC002B0DE9
:102F8000AB0CAA0CA90CA80CAC0BBF2F2B08A300F0
:102F90002A08A2002908A1002808A000320A031963
:102FA000D22FD32FD52F0130B207320A0319D92FD0
:102FB000DA2FDF2F3208031DDE2FDF2FED2F003039
:102FC000A3000030A2000030A1000030A0003208B1
:102FD000031DEB2FEC2FED2FB001321CF02FF12F42
:102FE000F32FA217F52F7F30A2053208A800031097
:102FF000280CA300B01FFD2FFE2FFF2FA3170800E2
:1034F20083160313061401178B100B16080083168C
:1035020003130711831203130711080064008001DB
:10351200840A0406031900340406882AF000831280
:1035220003130C1E952A962A902A70089900080007
:1035320083120313A0000C1E9F2AA02A9C2A200893
:10354200990008008E30831603139F0041308312C6
:1035520003139F0083160313051408008316031335
:10356200871707131F309900243098009030831278
:10357200031398000800831603174C08031DC22A80
:10358200C32AC82A0130CC000130CD00CB2ACC019D
:103592000130CD00080083120313A4002403031D8D
:1035A200D32AD42ADA2A0A168A15AF240A168A15C9
:1035B200DF2A0A168A157B240A168A150800831246
:1035C2000313A31BE52AE62AE72AF62A2009A0000C
:1035D2002109A1002209A2002309A300A00A0319BC
:1035E200A10A0319A20A0319A30A080083120313EA
:1035F2002008A2000130A107FF30210784000A162B
:103602008A110A200A168A15FF002208A20A8400DB
:103612007F08831780000008031D102B112BFB2A43
:103622000800831203132108A6002008A500262BF8
:103632002608840083170008A4000130A607250885
:103642008400240880000130A5070130A202003066
:10365200031CA303A302220A031D332B230A031D07
:10366200332B342B192B0800831603136B08ED0040
:10367200472B6908DD006A08DE00ED30DF006C08C8
:10368200E0000A128A154C200A168A1583160313C3
:103692006D0884000A168A110A200A168A15003A51
:1036A200031D542B552B3A2BE901EA010800803007
:1036B20083120313CB064F08A3004E08A2004D0845
:1036C200A1004C08A0004B08A7004A08A600490820
:1036D200A5004808A4000A168A11B0250A168A1500
:1036E200831203132308CB002208CA002108C90051
:1036F2002008C8000800912B7208FF00710884009E
:103702000A168A1100200A168A150A168A158F22AD
:103712000A168A150130F1070318F20A0030F2077F
:10372200720883120313FF00710884000A168A11BB
:1037320000200A168A15003A031DA02BA12B7D2B0F
:10374200080083120313A401A501201CA92BAA2B94
:10375200B02B2208A4070318A50A2308A5070130E5
:103762000310A20DA30DFF3E031DB12B0130031068
:10377200A10CA00CFF3E031DB82B20082104031D41
:10378200C32BC42BA62B2508A1002408A0000800E7
:10379200E02B2208FF00210884000A168A1100206B
:1037A2000A168A150A168A1599220A168A150130EE
:1037B20083120313A1070318A20A0030A20783127F
:1037C20003132208FF00210884000A168A11002030
:1037D2000A168A15003A031DEF2BF02BCA2B08009C
:1037E20083120313B301B4010E2C3208B000B101ED
:1037F2003008A0003108A1002E08A2002F08A30063
:103802000A168A1560270A168A15013083120313D5
:10381200B3070318B40A0030B40733082D07B00009
:103822003008840083170008B2003208031D1A2CE6
:103832001B2CF62B080092308316031796001008F3
:1038420097000130980099019A01A001A1019730D7
:1038520083160313E9000130EA00831603171108E7
:1038620083160313EB009630EC000A168A153523F3
:103872000A168A15831603171908100783160313ED
:10388200EE006E0884008317800108004230831224
:103892000313CB004830CA000030C9000030C80012
:1038A20083160317490883120313CF0083160317E5
:1038B200480883120313CE008316031747088312A6
:1038C2000313CD0083160317460883120313CC009B
:1038D2000A168A11E9200A168A150318712C722C0D
:1038E200772C013083160317CB007A2C831603172B
:1038F200CB01080083120313A201A3018312031355
:103902000715043083120313A1003D30A000A00B61
:10391200882CA10B882C8312031307118230831287
:103922000313A100DD30A000A00B952CA10B952C58
:10393200013083120313A2070318A30A0030A3075E
:103942002308803AFF0080307F02031DAA2C143026
:103952002202031CAD2CAE2C7F2C08008312031311
:10396200A201A3018312031307150D30831203135F
:10397200A100FB30A000A00BBC2CA10BBC2C83121D
:1039820003130711823083120313A100DD30A0005C
:10399200A00BC92CA10BC92C013083120313A2075F
:1039A2000318A30A0030A3072308803AFF008030DF
:1039B2007F02031DDE2C14302202031CE12CE22CB8
:1039C200B32C08000030831203132005A800003036
:1039D2002105A90080302205AA007F302305AB0013
:1039E2002B082A0429042804031DF82CF92C012D84
:1039F2000030A3000030A2000030A1000030A0007F
:103A020000302405A80000302505A90080302605D5
:103A1200AA007F302705AB002B082A0429042804BA
:103A2200031D142D152D1D2D0030A7000030A600FA
:103A32000030A5000030A40027082306031D2B2D0B
:103A420026082206031D2B2D25082106031D2B2DDA
:103A52002408200603192E2D2F2D312D0310322D6F
:103A620003140800831203138C1E382D392D712D77
:103A72001A08FB0041307B060319402D412D472DCA
:103A820061307B06031D462D472D572D01308316CD
:103A92000317CC000130CD007C30F1008030F20001
:103AA2000A168A157C230A168A15712D43307B0665
:103AB20003195C2D5D2D632D63307B06031D622D82
:103AC200632D712D83160317CC010130CD006B30AD
:103AD200F1008030F2000A168A157C230A168A1534
:103AE2008B1C742D752D7A2D8B10013083160317C4
:103AF200CD007608FF0075088A0074088400730EF2
:103B02008300FE0E7E0E090083120313A901AA018F
:103B1200260884008313000884000A168A110A20EA
:103B22000A168A152A3A031D972D982DC72D2608A5
:103B32008400013080072708840083170008FF00F3
:103B4200023080077F0884000008A900840A000868
:103B5200AA00D82D2A08A1002908A0000A30A20034
:103B62000030A3000A168A15A2230A168A158312A8
:103B7200031328082007A900003003180130210789
:103B8200AA002608840001308313800726088400D7
:103B9200000884000A168A110A200A168A15D03EE5
:103BA200A8000A302802031CD72DD82DAB2D2A08D5
:103BB200A7002908A6000800031083120313220D90
:103BC200230DA9002908031DE72DE82DF12D003052
:103BD200A3000030A2000030A1000030A000522E4D
:103BE2002008A4002108A5002208A6002308A70097
:103BF2001F300310A70CA60CA50CA40CFF3E031D3E
:103C0200FA2D2408A800A217FF30A005FF30A10555
:103C1200FF30A2050030A3059630A902A91F122E7B
:103C2200132E2B2E2908803A973E0318192E1A2E8E
:103C32001B2EE82D01300310A30CA20CA10CA00C2A
:103C4200FF3E031D1C2E0130A907031D292E2A2E1B
:103C52001B2E422E20302902031C302E312E3D2EE7
:103C6200E82D0130A4000310A00DA10DA20DA30D9B
:103C7200A40B342E0130A9022908031D412E422E25
:103C8200322E28080319462E472E522EA009A109CA
:103C9200A209A309A00A0319A10A0319A20A031976
:103CA200A30A08000D3083120313E700FB30E6007D
:103CB200E60B592EE70B592E831203131F151F19FA
:103CC200632E642E602E1E08ED00831603131E0859
:103CD20083120313EC004030B100A030B00000307A
:103CE200AF000030AE006C08A0006D08A1000030EB
:103CF200A11BFF30A200A30001300A168A118D21F8
:103D02000A168A15831203132308B5002208B40089
:103D12002108B3002008B2000A128A154E210A16A1
:103D22008A15831203133108EB003008EA002F08CA
:103D3200E9002E08E8004430CB008030CA00003091
:103D4200C9000030C8004230B100C830B0000030B5
:103D5200AF000030AE006B08B5006A08B400690815
:103D6200B3006808B2000A128A154E210A168A1593
:103D7200831203133108CF003008CE002F08CD0084
:103D82002E08CC000A168A11E6230A168A15831217
:103D920003134B08E5004A08E4004908E300480819
:103DA200E200080083160317450883120313AF00CD
:103DB20083160317440883120313AE0083160317F6
:103DC200430883120313AD008316031742088312BC
:103DD2000313AC002308AF002208AE002108AD0097
:103DE2002008AC002C08A4002D08A5002E08A6006F
:103DF2002F08A70017300310A70CA60CA50CA40CC3
:103E0200FF3E031DFC2EFF302405AA0000302505CD
:103E1200AB002A082B04031D0F2F102F332F2C0861
:103E2200A4002D08A5002E08A6002F08A700013027
:103E32000310A40DA50DA60DA70DFF3E031D192FFE
:103E42002708260425042404031D282F292F2E2F9A
:103E52000230A0000030A1005F2F0330A00000302C
:103E6200A1005F2F2A0A2B04031D382F392F5B2F45
:103E72002C08A4002D08A5002E08A6002F08A700D4
:103E820009300310A40DA50DA60DA70DFF3E031DBD
:103E9200422F27082604250424040319512F532FE7
:103EA2000130542F0030A800A9012808A0002908D9
:103EB200A1005F2F0430A0000030A100080083128F
:103EC2000313220823040319672F682F6E2F220879
:103ED2002304031D6D2F6E2F752F20080A128A11DD
:103EE20003200A168A15FF2F2208093EA400230880
:103EF2000318013E003EA500240884008317251CF8
:103F020083130008A600840A0008A70026082704D5
:103F120003198C2F8D2FBF2F2208093EA4002308DE
:103F22000318013E003EA500240884008317251CC7
:103F320083130008A600840A0008A7002208023E94
:103F4200A80023080318013E003EA90028088400A7
:103F52008317291C83130008AA00840A0008AB00F7
:103F62002B08803AAC002708803A2C02031DBB2F95
:103F720026082A020318BE2FBF2FFF2F8312031316
:103F8200220884008317231C83130008A400840AD8
:103F92000008A5002208023EA60023080318013EDD
:103FA200003EA700260884008317271C83130008FD
:103FB2002407A9002508A8000318A80A801FE22FD9
:103FC200A803831203132808AA0029088400831770
:103FD2002A1C8313200880002208023EA400230822
:103FE2000318013E003EA500240884008317251C07
:0E3FF200831301308007840A0318800A080038
:02400E00723FFF
:00000001FF
