:100000000A128A110C280800FE00030EF2000A08EA
:10001000F3000A168A110D280A128A110F28F70117
:10002000F801F9018317B8308400CB300A128A1125
:10003000F8270A128A111030840060300A128A11DF
:10004000F8270A128A1183010A168A11F52A8316E3
:100050000313560883120313CB00831603135508AA
:1000600083120313CA008316031354088312031365
:10007000C90083160313530883120313C8008316A1
:1000800003135C0883120313CF00831603135B086A
:1000900083120313CE00831603135A08831203132B
:1000A000CD0083160313590883120313CC000A16DC
:1000B0008A119B210A128A11031C5F2862280A12E6
:1000C0008A155A2F831603133008BA003A08BB006A
:1000D00083160317C71B6D286E28792847088316D7
:1000E0000313B40083160317460883160313B300E3
:1000F0007F28063083160313B3000030B4003408A1
:10010000BF003308BE000130BE070318BF0A00302D
:10011000BF0766303B06031D8E288F28A928C11F04
:10012000922893289D283F30DC008030DB0000308F
:10013000DA000030D900C001C10167303A06031966
:10014000A228A328A9284008BE070318BF0A41080F
:10015000BF07C801C9015608CD005508CC00540896
:10016000CB005308CA005C08C7005B08C6005A08E9
:10017000C5005908C400F629831603135C088312CE
:100180000313CB00831603135B0883120313CA0007
:10019000831603135A0883120313C900831603132B
:1001A000590883120313C800831603134D088312E2
:1001B0000313CF00831603134C0883120313CE00DE
:1001C000831603134B0883120313CD008316031306
:1001D0004A0883120313CC000A168A11E6230A1276
:1001E0008A11831203134B08E5004A08E40049080A
:1001F000E3004808E2000A128A1145260A128A1111
:1002000083120313650883160313D10083120313AB
:10021000640883160313D000831203136308831644
:100220000313CF0083120313620883160313CE0057
:10023000510883120313A30083160313500883127B
:100240000313A200831603134F0883120313A100A4
:10025000831603134E0883120313A0000A168A158F
:100260000A270A128A118312031321088316031323
:10027000BD0083120313200883160313BC005C081F
:1002800083120313B500831603135B088312031351
:10029000B400831603135A0883120313B3008316A2
:1002A0000313590883120313B20083160313510872
:1002B00083120313B1008316031350088312031330
:1002C000B000831603134F0883120313AF00831685
:1002D00003134E0883120313AE000A128A154A2133
:1002E0000A128A11831203133108CB003008CA00A6
:1002F0002F08C9002E08C800831603134D08831267
:100300000313CF00831603134C0883120313CE008C
:10031000831603134B0883120313CD0083160313B4
:100320004A0883120313CC000A168A153E250A12C6
:100330008A11831203134B0883160313CD00831213
:1003400003134A0883160313CC00831203134908CE
:1003500083160313CB008312031348088316031379
:10036000CA00413083120313CB002030CA00003092
:10037000C9000030C800831603135C0883120313FE
:10038000CF00831603135B0883120313CE0083167A
:1003900003135A0883120313CD008316031359085D
:1003A00083120313CC000A168A11E6230A128A115B
:1003B000831203134B0883160313DC008312031309
:1003C0004A0883160313DB008312031349088316BC
:1003D0000313DA0083120313480883160313D900AA
:1003E0000130C8070318C90A0030C9074908803A14
:1003F00083120313EC00831603133F08803A831221
:1004000003136C02031D082A831603133E084802D7
:10041000031C0B2A0C2ABC28403083120313B100A2
:10042000A030B0000030AF000030AE0083160313E0
:100430005C0883120313B500831603135B08831251
:100440000313B400831603135A0883120313B30073
:1004500083160313590883120313B2000A128A1574
:100460004A210A128A1183120313310883160313D7
:10047000D10083120313300883160313D0008312B4
:1004800003132F0883160313CF00831203132E08C0
:1004900083160313CE004D0883120313CB0083167B
:1004A00003134C0883120313CA00831603134B086B
:1004B00083120313C900831603134A08831203131C
:1004C000C80083160313510883120313CF00831649
:1004D0000313500883120313CE00831603134F082F
:1004E00083120313CD00831603134E0883120313E4
:1004F000CC000A168A119B210A128A110318812A3C
:10050000822A8D2A003083160313D1000030D000D8
:100510000030CF000030CE00D42A831603134D08DC
:1005200083120313A300831603134C0883120313CF
:10053000A200831603134B0883120313A100831632
:1005400003134A0883120313A000831603135108F0
:1005500083120313A7008316031350088312031397
:10056000A600831603134F0883120313A5008316F6
:1005700003134E0883120313A4000A168A15622679
:100580000A128A11031CC52AC62AD42A8316031309
:100590003C18CB2ACC2AD42A0030D1000030D0001D
:1005A0000030CF000030CE008316031351088312B1
:1005B0000313A30083160313500883120313A2002E
:1005C000831603134F0883120313A100831603132A
:1005D0004E0883120313A0008316031356088312D8
:1005E0000313A70083160313550883120313A600F1
:1005F00083160313540883120313A50083160313F1
:10060000530883120313A4000A168A11B0250A1294
:100610008A1183120313230883160313CD00831258
:100620000313220883160313CC008312031321083B
:1006300083160313CB0083120313200883160313BE
:10064000CA004D0883120313CB00831603134C0812
:1006500083120313CA00831603134B088312031378
:10066000C900831603134A0883120313C8004130DC
:10067000B1002030B0000030AF000030AE00831673
:100680000313470883120313B500831603134608A8
:1006900083120313B4008316031345088312031354
:1006A000B30083160313440883120313B2000A1223
:1006B0008A154A210A128A11831203133108CF00C6
:1006C0003008CE002F08CD002E08CC000A168A1163
:1006D0009B210A128A11031C6E2B6F2BC22B013037
:1006E00083160313C0070318C10A0030C107413045
:1006F00083120313B1002030B0000030AF0000308F
:10070000AE0083160313470883120313B500831644
:100710000313460883120313B4008316031345081A
:1007200083120313B30083160313440883120313C5
:10073000B2000A128A154A210A128A11831203137F
:10074000310883160313C70083120313300883167E
:100750000313C600831203132F0883160313C50067
:10076000831203132E0883160313C40066303B065E
:10077000031DBB2BBC2BC22B0130BE070318BF0AC5
:100780000030BF07831603134708DC004608DB0070
:100790004508DA004408D9004108B2004008B10019
:1007A000B901B501B601C801C901982D831603131B
:1007B0005C0883120313CB00831603135B088312B8
:1007C0000313CA00831603135A0883120313C900C4
:1007D00083160313590883120313C80083160313E7
:1007E0004D0883120313CF00831603134C088312A2
:1007F0000313CE00831603134B0883120313CD009B
:10080000831603134A0883120313CC000A168A11B5
:10081000E6230A128A11831203134B08E5004A08E3
:10082000E4004908E3004808E2000A128A1145265C
:100830000A128A1183120313650883160313D10069
:1008400083120313640883160313D0008312031367
:10085000630883160313CF00831203136208831601
:100860000313CE00510883120313A300831603134E
:10087000500883120313A200831603134F08831238
:100880000313A100831603134E0883120313A00061
:100890000A168A150A270A128A11831203132108DD
:1008A000803AFF0080307F02031D582C0A3020025E
:1008B00003185B2C5C2C862C8316031351088312BF
:1008C0000313A30083160313500883120313A2001B
:1008D000831603134F0883120313A1008316031317
:1008E0004E0883120313A0000A168A150A270A125B
:1008F0008A1183120313210883160313BD00831288
:100900000313200883160313BC008C2C09308316B4
:100910000313BC000030BD003908031D902C912C3E
:10092000C22CB21F942C952CC22C5708103E840068
:100930002E30831780000130D7070318D80A003003
:10094000D807FF30C2070318C30AFF30C3070130BE
:10095000B900C22C5708103E840030308317800045
:100960000130D7070318D80A0030D807FF30C20774
:100970000318C30AFF30C307FF30B5070318B60AD0
:10098000FF30B60735083604031DC72CC82CAA2C27
:100990005708103E84003C08303E83178000013029
:1009A000D7070318D80A0030D807FF30C20703184A
:1009B000C30AFF30C3075C0883120313B500831614
:1009C00003135B0883120313B400831603135A083E
:1009D00083120313B30083160313590883120313FE
:1009E000B20083160313510883120313B100831658
:1009F0000313500883120313B000831603134F0828
:100A000083120313AF00831603134E0883120313DC
:100A1000AE000A128A154A210A128A1183120313A0
:100A20003108CB003008CA002F08C9002E08C800C2
:100A3000831603134D0883120313CF008316031389
:100A40004C0883120313CE00831603134B08831242
:100A50000313CD00831603134A0883120313CC003B
:100A60000A168A153E250A128A11831203134B08AF
:100A700083160313CD00831203134A08831603134E
:100A8000CC0083120313490883160313CB0083128F
:100A90000313480883160313CA004130831203135B
:100AA000CB002030CA000030C9000030C8008316D7
:100AB00003135C0883120313CF00831603135B0830
:100AC00083120313CE00831603135A0883120313F1
:100AD000CD0083160313590883120313CC000A16A2
:100AE0008A11E6230A128A11831203134B08831614
:100AF0000313DC00831203134A0883160313DB007D
:100B000083120313490883160313DA0083120313B5
:100B1000480883160313D900FF30B1070318B20A3F
:100B2000FF30B2070130C8070318C90A0030C907EF
:100B30004908803A83120313EC00831603133F081D
:100B4000803A831203136C02031DAA2D831603132C
:100B50003E0848020318AD2DAE2DBD2D831603139C
:100B60005808803AFF0080307F02031DB92D4B30BA
:100B70005702031CBC2DBD2DD62B4F3083160313FB
:100B8000C8000030C9004808103E84008317800167
:100B9000103083120313EC008316031357088312DB
:100BA0000313EC02831603134808831203136C0724
:100BB000A0001030A10083160313580883120313FA
:100BC000A30083160313570883120313A2000A1607
:100BD0008A15F8240A128A1183160313570848024B
:100BE000D7005808031C580A4902D8005208031DB0
:100BF000FA2DFC2D0130FD2D003083120313EC0083
:100C0000ED016C0883160313C800831203136D08EB
:100C100083160313C900520803190F2E102E1C2E21
:100C2000FF30D7070318D80AFF30D8075708103EFF
:100C300084005208831780004808C2024908031C38
:100C4000C303C3022A0883120313B30083160313DA
:100C50002B0883120313B400831603135708103EA6
:100C600083120313B500831603134308831203137F
:100C7000B70083160313420883120313B6000A1247
:100C80008A1501200A128A110800831603173B08EF
:100C900083160313A900831603173A088316031358
:100CA000A80083160317390883160313A7008316B9
:100CB0000317380883160313A6008312031365086D
:100CC00083160313A9008312031364088316031306
:100CD000A80083120313630883160313A70083126B
:100CE0000313620883160313A60026088312031356
:100CF000E60083160313270883120313E700831605
:100D00000313280883120313E8008316031329082A
:100D100083120313E90017300310E90CE80CE70C09
:100D2000E60CFF3E031D8C2EFF306605EA00003006
:100D30006705EB006A08813E83160313A400831243
:100D400003136B080318013EFF3E83160313A5002F
:100D50002508803AFF0080307F02031DB12E173036
:100D60002402031CB42EB52EB62EF72F83160313C0
:100D7000A51BBB2EBC2E7A2F240AFF00FF30831246
:100D80000313E600FF30E7007F30E8000030E900A1
:100D9000CE2E690DE90CE80CE70CE60CFF0BC92E12
:100DA000690883160313A3008312031368088316CC
:100DB0000313A20083120313670883160313A10011
:100DC00083120313660883160313A0002008260568
:100DD00083120313E60083160313210827058312E9
:100DE0000313E70083160313220828058312031355
:100DF000E800831603132308290583120313E9006F
:100E00006908680467046604031D072F082F092F6B
:100E1000B52E83160313260883120313E6008316E8
:100E20000313270883120313E7008316031328080C
:100E300083120313E8008316031329088312031394
:100E4000E9001F300310E90CE80CE70CE60CFF3E4C
:100E5000031D222F69086804670466040319312FF3
:100E6000322F4B2F831603132008A60721080311E6
:100E70000318013E03193D2FA70722080311031889
:100E8000013E0319442FA807230803110318013E4C
:100E900003194B2FA9078316031320098312031389
:100EA000E60083160313210983120313E700831658
:100EB0000313220983120313E80083160313230983
:100EC00083120313E900660883160313A605831231
:100ED0000313670883160313A70583120313680817
:100EE00083160313A80583120313690883160313DB
:100EF000A905DF2F260883120313E60083160313C8
:100F0000270883120313E7008316031328088312AC
:100F10000313E80083160313290883120313E9005F
:100F20001F300310E90CE80CE70CE60CFF3E031D34
:100F3000912F6908680467046604031DA02FA12F80
:100F4000AC2F003083160313A9000030A800003036
:100F5000A7000030A600DF2F831603132608831294
:100F60000313E60083160313270883120313E70015
:100F700083160313280883120313E8008316031350
:100F8000290883120313E90001300310E60DE70D71
:100F9000E80DE90DFF3E031DC52F690868046704CD
:100FA00066040319D42FD52FDF2FBF308316031308
:100FB000A9008030A8000030A7000030A6008316EA
:100FC0000313290883120313E5008316031328086B
:100FD00083120313E40083160313270883120313F9
:100FE000E30083160313260883120313E2000800AC
:100FF00064008001840A0406031900340406F92FF2
:1010020083120313B71F062807280928B601B70160
:10101200B801B9012328203083120313A000003045
:10102200A1003308A2003408A3000A168A11FB208B
:101032000A128A15013083120313B8070318B90A7A
:101042000030B9073908803AF6003708803A76024C
:10105200031D2D2836083802031C302831280C289D
:10106200831203133508AD003308AE003408AF0015
:101072000A168A15D8250A128A1508008316031340
:101082005F0884008313000884000A168A150A2068
:101092000A128A15253A031D4F28502822295F0873
:1010A20084000130800783160317C401C501003094
:1010B200F700FF30C600FF30C700831603135F0836
:1010C2008400000884000A168A150A200A128A156A
:1010D2002E3A031D6D286E288D285F08840001308A
:1010E20080075F0883120313A400831603136008AA
:1010F20083120313A5000A168A15B2260A128A154C
:1011020083120313250883160317C70083120313E0
:10111200240883160317C60003135F088400831391
:101122000008E800680884000A168A150A200A12D4
:101132008A15E700A4280130E807AF286C30E700E1
:10114200AF28E701AF2867084C3A03199C282A3ACE
:1011520003199F280A3A03199C28A22868088400C8
:101162000A168A150A200A128A15663A031DBA2837
:10117200BB281A29E6286008840083170008FF00AC
:10118200043080077F0884000008E300840A000816
:10119200E400840A0008E500840A0008E600EE285C
:1011A2006008840083170008FF00043080077F086E
:1011B20084000008E300840A0008E400840A0008AE
:1011C200E500840A0008E600EE2867084C3A031995
:1011D200D128203A0319BC28EE285F088400680849
:1011E200013E831380000F295D08AA005E08AB0050
:1011F2006608AF006508AE006408AD006308AC0085
:10120200680884000A168A150A200A128A15B00094
:101212000A128A158C240A128A1549296808840040
:101222000A168A150A200A128A15663A0319F5283F
:101232001A29831603135F08840001308313800781
:1012420049295F088400000884000A168A150A20CA
:101252000A128A15E100E201610883120313A00059
:1012620083160313620883120313A1008316031368
:101272005D0883120313A200831603135E08831210
:101282000313A3000A168A11FB200A128A151A29CF
:101292000800831203133108BB008030BB053108FC
:1012A200B6003607C100B01F5729582959294114E1
:1012B200410803195D295E296D29410A031D62292E
:1012C20063296B290030B1000030B0000030AF005C
:1012D2000030AE00B01775290030B1000030B00008
:1012E2000030AF000030AE0035088039BB0635084B
:1012F200B6003607BC00B41F7F29802981293C141F
:101302003C0803198529862995293C0A031D8A2947
:101312008B2993290030B5000030B4000030B300AF
:101322000030B200B4179D290030B5000030B4007F
:101332000030B3000030B2003C080319A129A229F1
:10134200A7294108031DA629A729B0290030B10009
:101352000030B0000030AF000030AE008B2C2E0801
:10136200F40034080A168A15AF250A128A15750880
:1013720083120313C7007408C6004608B600B701FB
:10138200B801B9013908C0003808BF003708BE00EB
:101392003608BD004708B600B701B801B9013908DF
:1013A200C5003808C4003708C3003608C2002F0839
:1013B200F40033080A168A15AF250A128A15750831
:1013C20083120313C7007408C6004608B600B701AB
:1013D200B801B9013608BD07370803110318013EE9
:1013E2000319F429BE07380803110318013E031933
:1013F200FB29BF07390803110318013E0319022A0A
:10140200C0074708B600B701B801B9013608C207DC
:10141200370803110318013E0319102AC3073808BD
:1014220003110318013E0319172AC40739080311CF
:101432000318013E03191E2AC5073008F4003208BA
:101442000A168A15AF250A128A1575088312031324
:10145200C7007408C6004608B600B701B801B90152
:101462003608BD07370803110318013E03193A2A4B
:10147200BE07380803110318013E0319412ABF07AA
:10148200390803110318013E0319482AC007470807
:10149200B600B701B801B9013608C207370803110F
:1014A2000318013E0319562AC3073808031103180B
:1014B200013E03195D2AC407390803110318013ECE
:1014C2000319642AC5070830B6000310BD0DBE0D0E
:1014D200BF0DC00DB60B662A2F08F40032080A169B
:1014E2008A15AF250A128A15750883120313C700DD
:1014F2007408C6004608B6004708B700B801B9012B
:101502003608BD07370803110318013E03198A2A5A
:10151200BE07380803110318013E0319912ABF07B9
:10152200390803110318013E0319982AC0072E082F
:10153200F40033080A168A15AF250A128A157508AF
:1015420083120313C7007408C6004608B600470892
:10155200B700B801B9013608BD07370803110318EF
:10156200013E0319B52ABE07380803110318013ECC
:101572000319BC2ABF07390803110318013E0319D6
:10158200C32AC0070830B6000310BD0DBE0DBF0D43
:10159200C00DB60BC52A2E08F40032080A168A15A9
:1015A200AF250A128A15750883120313C70074083F
:1015B200C6004608B6004708B700B801B9013608A8
:1015C200BD07370803110318013E0319E92ABE07B4
:1015D200380803110318013E0319F02ABF0739081E
:1015E20003110318013E0319F72AC0072F08F4005C
:1015F20034080A168A15AF250A128A15750883124D
:101602000313C7007408C6004608B6004708B700AF
:10161200B801B9013608C207370803110318013EA1
:101622000319142BC307380803110318013E0319C9
:101632001B2BC407390803110318013E0319222B7F
:10164200C5073008F40033080A168A15AF250A12B6
:101652008A15750883120313C7007408C60046086A
:10166200B6004708B700B801B9013608C207370803
:1016720003110318013E03193F2BC3073808031156
:101682000318013E0319462BC40739080311031836
:10169200013E03194D2BC5073008F40034080A1621
:1016A2008A15AF250A128A15750883120313C7001B
:1016B2007408C6004608B6004708B700B801B90169
:1016C20008300310B60DB70DB80DB90DFF3E031D5E
:1016D200622B3608C207370803110318013E0319AB
:1016E200732BC307380803110318013E03197A2B21
:1016F200C407390803110318013E0319812BC507DA
:101702003D08B6003E08B7003F08B8004008B900DF
:1017120018300310B90CB80CB70CB60CFF3E031D01
:101722008A2B3608C207370803110318013E031932
:101732009B2BC307380803110318013E0319A22B80
:10174200C407390803110318013E0319A92BC50761
:101752000830B6000310BD0DBE0DBF0DC00DB60B97
:10176200AB2B41083C07B600B701B70D3608823EE5
:10177200C60037080318013EFF3EC700DD2B0130CB
:10178200B6000310C20DC30DC40DC50DB60BC22B9E
:10179200C01FCC2BCD2BCE2B42140130B600031030
:1017A200BD0DBE0DBF0DC00DB60BD02BFF30C60751
:1017B2000318C70AFF30C707C41FE02BE12BC02B59
:1017C200BC01C01FE52BE62B022CFF303D05B60005
:1017D200FF303E05B700FF303F05B8007F304005BF
:1017E200B90039083804370436040319F92BFA2BE7
:1017F200FD2B0130BC00022C421C002C012C022CBF
:10180200FA2B3C080319062C072C382C0130C2078E
:10181200003003180130C307003003180130C40739
:10182200003003180130C507451C182C192C382C20
:101832004208B6004308B7004408B8004508B9009A
:101842000130BA00390DB90CB80CB70CB60CBA0B92
:10185200232C3908C5003808C4003708C3003608ED
:10186200C2000130C6070318C70A0030C70747087D
:10187200803AFF0080307F02031D412CFF30460278
:10188200031C442C452C502C7F3083120313C500BB
:101892008030C4000030C3000030C200812C8312AB
:1018A20003134708803AFF0080307F02031D5B2C40
:1018B2000130460203185E2C5F2C6B2C0030831221
:1018C2000313C5000030C4000030C3000030C20062
:1018D200BB01812C831203134608C100FF30C205ED
:1018E200FF30C3057F30C4050030C505411C7A2C8A
:1018F2007B2C7C2CC4174108B6000310360CC500A3
:101902003B08C5044508B1004408B0004308AF00D5
:101912004208AE00080083160313D2012F08D60036
:101922002E08D5002D08D4002C08D30056088312A7
:101932000313CB0083160313550883120313CA0043
:1019420083160313540883120313C9008316031367
:10195200530883120313C8000030CF000030CE00BA
:101962000030CD000030CC000A168A119B210A12E9
:101972008A150318BD2CBE2CF52C013083160313D7
:10198200D200560883120313A300831603135508CB
:1019920083120313A2008316031354088312031342
:1019A200A10083160313530883120313A0000A161F
:1019B2008A1100200A128A15831203132308831640
:1019C2000313D60083120313220883160313D500D0
:1019D20083120313210883160313D4008312031303
:1019E200200883160313D30083160313D701D801EB
:1019F20083160317450883160313C30083160317C0
:101A0200440883160313C20052080319092D0A2D34
:101A12001A2D5208031D0E2D0F2D142D2B30B70039
:101A22000030B800182D2D30B7000030B80037084C
:101A3200D200560883120313A3008316031355081A
:101A420083120313A2008316031354088312031391
:101A5200A10083160313530883120313A0000A166E
:101A62008A116E200A128A1583120313200321049D
:101A7200031D3C2D3D2D862D831603135208031999
:101A8200432D442D542D5208831203179000FF302A
:101A920083160313C2070318C30AFF30C3070130BA
:101AA200D7000030D8005708103EF4003F30F50050
:101AB2000A168A15C3240A128A15FD3083160313E7
:101AC200C2070318C30AFF30C3072A08831203138D
:101AD200B300831603132B0883120313B4001030D0
:101AE200B50083160313430883120313B70083164A
:101AF2000313420883120313B6000A128A15012047
:101B02000A128A150A128A11442E831603135608E2
:101B120083120313A30083160313550883120313BE
:101B2200A20083160313540883120313A100831621
:101B32000313530883120313A0000A168A116E209E
:101B42000A128A158312031320082104031DAA2DE9
:101B5200AB2DCD2D8316031352080319B12DB22DCF
:101B6200C22D5208831203179000FF30831603130D
:101B7200C2070318C30AFF30C3070130D700003081
:101B8200D8005708103EF4004330F5000A168A15B3
:101B9200C3240A128A155E2D3F3083160313DC001C
:101BA2008030DB000030DA000030D900C001C10112
:101BB200560883120313A3008316031355088312D6
:101BC2000313A20083160313540883120313A10004
:101BD20083160313530883120313A0000030A700D7
:101BE2000030A6000030A5000030A4000A168A15B5
:101BF20062260A128A150318FF2D022E0A128A1172
:101C02006228132E831603134708DC004608DB0004
:101C12004508DA004408D9000130C0070318C10A98
:101C22000030C107413083120313B1002030B000ED
:101C32000030AF000030AE00831603135C0883123D
:101C42000313B500831603135B0883120313B40056
:101C5200831603135A0883120313B3008316031364
:101C6200590883120313B2000A128A154A210A1272
:101C72008A1583120313310883160313C7008312D4
:101C82000313300883160313C600831203132F08AD
:101C920083160313C500831203132E08831603133E
:101CA200C400530883120313EC0083160313540871
:101CB20083120313ED0083160313550883120313D3
:101CC200EE0083160313560883120313EF008316E4
:101CD2000313440883120313EC028316031345080B
:101CE200031C450F752E782E83120313ED02831603
:101CF20003134608031C460F7F2E822E8312031302
:101D0200EE02831603134708031C470F892E8C2EFD
:101D120083120313EF0283160313831203136F0854
:101D2200A3006E08A2006D08A1006C08A0000A16AC
:101D32008A15AC240A128A1583120313A31BB12E2F
:101D42002308031DB22E2208031DB22E2108031DF3
:101D5200B22E02302002031DAE2E031CB12EB22E73
:101D6200032E83160313470883120313CB00831633
:101D72000313460883120313CA008316031345088C
:101D820083120313C9008316031344088312031337
:101D9200C80083160313560883120313CF00831659
:101DA2000313550883120313CE008316031354083A
:101DB20083120313CD0083160313530883120313F4
:101DC200CC000A168A119B210A128A15031CEA2EDC
:101DD200EB2E032E83160313530883120313EC0016
:101DE20083160313540883120313ED00831603139F
:101DF200550883120313EE00831603135608831249
:101E02000313EF0083160313590883120313EC0222
:101E1200831603135A08031C5A0F102F132F831211
:101E22000313ED02831603135B08031C5B0F1A2FC7
:101E32001D2F83120313EE02831603135C08031C87
:101E42005C0F242F272F83120313EF028316031331
:101E5200831203136F08A3006E08A2006D08A1008D
:101E62006C08A0000A168A15AC240A128A1583127D
:101E72000313A31B4F2F2308031D4C2F2208031DFE
:101E82004C2F2108031D4C2F02302002031D492F25
:101E920003184C2F4F2F0A128A1127288316031377
:101EA2005C08D6005B08D5005A08D4005908D30054
:101EB200FF2D413083120313CB002030CA000030C3
:101EC200C9000030C800831603135C088312031391
:101ED200CF00831603135B0883120313CE0083160D
:101EE20003135A0883120313CD00831603135908F0
:101EF20083120313CC000A168A11E6230A128A15EA
:101F0200831203134B0883160313DC00831203139B
:101F12004A0883160313DB0083120313490883164E
:101F22000313DA0083120313480883160313D9003C
:101F3200FF30C0070318C10AFF30C10753088312DC
:101F42000313EC0083160313540883120313ED00EA
:101F520083160313550883120313EE00831603132B
:101F6200560883120313EF008316031359088312D2
:101F72000313EC02831603135A08031C5A0FC22FD1
:101F8200C52F83120313ED02831603135B08031C90
:101F92005B0FCC2FCF2F83120313EE028316031392
:101FA2005C08031C5C0FD62FD92F83120313EF0298
:101FB20083160313831203136F08A3006E08A20093
:101FC2006D08A1006C08A0000A168A15AC240A123A
:101FD2008A1583120313A31BFF2F2308031DFE2F51
:101FE2002208031DFE2F2108031DFE2F02302002AE
:101FF200031DFB2F0318FE2FFF2F4C2F4F2F831291
:1020020003132308220421042004031909280A289F
:102012000C288030A3060800831203138C1E12289A
:10202200132835281A08F9004130790603191A28AD
:102032001B28212861307906031D20282128262803
:10204200013083160317CA00352843307906031975
:102052002B282C28322863307906031D3128322898
:10206200352883160317CA018B1C3828392867289C
:102072008B104130F100EE30F000F00B3E28F10BF6
:102082003E28000083120313061C482849286728AB
:102092000A168A1577240A168A1158280D30F1007B
:1020A200FB30F000F00B5328F10B53285828831211
:1020B200031306185D285E284F284130F100EE30E8
:1020C200F000F00B6228F10B6228000073088A000E
:1020D200720E8300FE0E7E0E0900831603173F0860
:1020E20083120313AF00831603173E0883120313F0
:1020F200AE00831603173D0883120313AD00831647
:1021020003173C0883120313AC002308AF00220814
:10211200AE002108AD002008AC002C08A4002D0858
:10212200A5002E08A6002F08A70017300310A70C41
:10213200A60CA50CA40CFF3E031D9728FF30240516
:10214200AA0000302505AB002A082B04031DAA288B
:10215200AB28CE282C08A4002D08A5002E08A60026
:102162002F08A70001300310A40DA50DA60DA70D81
:10217200FF3E031DB4282708260425042404031D5A
:10218200C328C428C9280230A0000030A100FA28C0
:102192000330A0000030A100FA282A0A2B04031DF4
:1021A200D328D428F6282C08A4002D08A5002E0830
:1021B200A6002F08A70009300310A40DA50DA60D37
:1021C200A70DFF3E031DDD2827082604250424044D
:1021D2000319EC28EE280130EF280030A800A901ED
:1021E2002808A0002908A100FA280430A000003025
:1021F200A1000800831203132208230403190229F1
:102202000329092922082304031D08290929102961
:1022120020080A128A1103200A168A119A29220812
:10222200093EA40023080318013E003EA50024082D
:1022320084008317251C83130008A600840A000863
:10224200A700260827040319272928295A29220822
:10225200093EA40023080318013E003EA5002408FD
:1022620084008317251C83130008A600840A000833
:10227200A7002208023EA80023080318013E003EE0
:10228200A900280884008317291C83130008AA00C8
:10229200840A0008AB002B08803AAC002708803A79
:1022A2002C02031D562926082A02031859295A29E5
:1022B2009A2983120313220884008317231C831391
:1022C2000008A400840A0008A5002208023EA60015
:1022D20023080318013E003EA70026088400831746
:1022E200271C831300082407A9002508A800031847
:1022F200A80A801F7D29A803831203132808AA00B5
:102302002908840083172A1C8313200880002208CE
:10231200023EA40023080318013E003EA500240843
:1023220084008317251C831301308007840A031855
:10233200800A08000030831203134805D0000030E1
:102342004905D10080304A05D2007F304B05D300C9
:102352005308520451045004031DB029B129B9296C
:102362000030CB000030CA000030C9000030C80085
:1023720000304C05D00000304D05D10080304E05B4
:10238200D2007F304F05D300530852045104500449
:10239200031DCC29CD29D5290030CF000030CE0035
:1023A2000030CD000030CC00CB1FD829D929FD291F
:1023B2000030D0000030D1000030D2008030D30095
:1023C2004808D0024908031C490FE829E929D1022B
:1023D2004A08031C4A0FEE29EF29D2024B08031CBC
:1023E2004B0FF429F529D3025308CB005208CA0037
:1023F2005108C9005008C800CF1F002A012A252A07
:102402000030D0000030D1000030D2008030D30044
:102412004C08D0024D08031C4D0F102A112AD1027C
:102422004E08031C4E0F162A172AD2024F08031C0D
:102432004F0F1C2A1D2AD3025308CF005208CE0088
:102442005108CD005008CC008030CB068030CF063A
:102452004F084B02031D372A4E084A02031D372A32
:102462004D084902031D372A4C08480203183A2A2C
:102472003B2A3D2A03103E2A031408008312031349
:10248200A80028080319462A472A5B2AA31F4A2ABA
:102492004B2A5B2A2009AA002109AB002209AC00C1
:1024A2002309AD00AA0A0319AB0A0319AC0A0319DE
:1024B200AD0A632A2308AD002208AC002108AB0054
:1024C2002008AA002308220421042004031D6A2AEA
:1024D2006B2A742A0030A3000030A2000030A10051
:1024E2000030A000F42A9630A900822A0130A90700
:1024F20001300310AD0CAC0CAB0CAA0CFF3E031D5B
:102502007A2AFE302D05031D872A882A772AA22AD5
:102512000130A9070130AA07003003180130AB07C8
:10252200003003180130AC07003003180130AD074A
:1025320001300310AD0CAC0CAB0CAA0CFF3E031D1A
:102542009A2AFF302D05031DA72AA82A892AB42A10
:102552000130A9020130A4000310AA0DAB0DAC0D8D
:10256200AD0DA40BAD2AAC1BB72AB82ABE2A023085
:1025720029020318BD2ABE2AA92A2918C12AC22A59
:10258200CA2AFF30AA05FF30AB057F30AC05FF3009
:10259200AD050310A90C2908A400A501A601A701F5
:1025A20018300310A40DA50DA60DA70DFF3E031DA7
:1025B200D22A2408AA042508AB042608AC0427085A
:1025C200AD0428080319E62AE72AEC2AA31FEA2AFF
:1025D200EB2AEC2AAD172D08A3002C08A2002B0829
:1025E200A1002A08A0000800013083160313860008
:1025F200880183120313860188010A168A1583242F
:102602000A168A110A168A158F240A168A110A16C0
:102612008A1566240A168A110A168A15DC240A16F5
:102622008A11831603138C160B160B178B1783163E
:102632000317CA014A080A168A159C240A168A1127
:102642000130F5008030F6000A168A1562250A1656
:102652008A110A168A1580270A168A118312031311
:10266200650883160317C3008312031364088316D5
:102672000317C20083120313630883160317C100F2
:1026820083120313620883160317C0000A168A1501
:102692002E260A168A11831603174A080A168A1565
:1026A2009C240A168A1183160317490803195A2B08
:1026B2005B2B702B83120313081001308316031750
:1026C200C80706304802031C672B682B882B023090
:1026D20083120313880683160317C801882B4A0343
:1026E2000319742B782B8312031308147B2B831288
:1026F20003130810831603174A080319812B852B2D
:10270200831203138814882B8312031388108316F1
:1027120003174A03031D8E2B8F2B992B3530F5009F
:102722008030F6000A168A1562250A168A11A22B33
:102732003A30F5008030F6000A168A1562250A162C
:102742008A11A430831603179000233091004308A6
:1027520095004208940041089300400892000A162E
:102762008A1503260A168A11A430F5000130F600F4
:102772000A168A1562250A168A1183160317490852
:102782000319C42BC52BCF2B3030F5008030F60057
:102792000A168A1562250A168A11D82B2B30F500E3
:1027A2008030F6000A168A1562250A168A118230CE
:1027B20083160317A300DD30A200A20BDE2BA30BAE
:1027C200DE2B2A2B0A128A110C28831203134F08BC
:1027D200D9008030D9054F08D0005007E000CE1F45
:1027E200F32BF42BF52B601460080319F92BFA2B49
:1027F2000A2C600A031DFE2BFF2B072C0030CF0092
:102802000030CE000030CD000030CC00CE17CF011A
:10281200122C0030CF000030CE000030CD0000304E
:10282200CC004B088039D9064B08D0005007E10094
:10283200CA1F1C2C1D2C1E2C611461080319222C8A
:10284200232C332C610A031D272C282C302C00301A
:10285200CB000030CA000030C9000030C800CA17DF
:10286200CB013B2C0030CB000030CA000030C90045
:102872000030C8004B084A0449044804031D422C96
:10288200432C5A2C0030CF000030CE000030CD0057
:102892000030CC008030CE047F30CF045908CF0402
:1028A2004F08CB004E08CA004D08C9004C08C800AA
:1028B200AF2D6008031D5E2C5F2C682C0030CB000E
:1028C2000030CA000030C9000030C800AF2D6008D7
:1028D200D000D1015108D30061085002D200031C7C
:1028E200D30352087F3EDA0053080318013E003E2C
:1028F200DB004F08D8004E08D7004D08D6004C0820
:10290200D5000030CF000030CE000030CD000030C6
:10291200CC000030DF000030DE000030DD0000308F
:10292200DC00E101DC2C61080319982C992CB92CEC
:102932000130D0000310D50DD60DD70DD80DD00B18
:102942009B2C0130D0000310CC0DCD0DCE0DCF0D40
:10295200D00BA42CDF1FAE2CAF2CB02C4C140130AA
:10296200D0000310DC0DDD0DDE0DDF0DD00BB22C1F
:102972004B085802031DC72C4A085702031DC72CD7
:1029820049085602031DC72C48085502031CCA2CCD
:10299200CB2CDA2C5F174808D5024908031C490FD3
:1029A200D6024A08031C4A0FD7024B08031C4B0FDE
:1029B200D8020130E1071A306102031CE12CE22C3B
:1029C200942C58085704560455040319E92CEA2C90
:1029D200092D5C14092D0130D0000310CC0DCD0D52
:1029E200CE0DCF0DD00BEE2CDF1FF82CF92CFA2CCC
:1029F2004C140130D0000310DC0DDD0DDE0DDF0DB7
:102A0200D00BFC2CFF30DA070318DB0AFF30DB07A0
:102A1200CE1F0C2D0D2DEC2CE101DF1F112D122DDF
:102A22002E2DFF305C05D000FF305D05D100FF3058
:102A32005E05D2007F305F05D30053085204510473
:102A420050040319252D262D292D0130E1002E2DAC
:102A52004C1C2C2D2D2D2E2D262D61080319322DC7
:102A6200332D642D0130CC07003003180130CD071F
:102A7200003003180130CE07003003180130CF07B1
:102A82004F1C442D452D642D4C08D0004D08D1001B
:102A92004E08D2004F08D3000130D400530DD30C9E
:102AA200D20CD10CD00CD40B4F2D5308CF005208AE
:102AB200CE005108CD005008CC000130DA070318CF
:102AC200DB0A0030DB075B08803AFF0080307F02C0
:102AD200031D6D2DFF305A02031C702D712D7F2DA9
:102AE200FF3083120313DA000030DB000030CF0026
:102AF2000030CE000030CD000030CC008312031332
:102B02005B08803AFF0080307F02031D8A2D01306E
:102B12005A0203188D2D8E2D9B2D83120313DA0179
:102B2200DB010030CF000030CE000030CD0000309D
:102B3200CC00D901831203135A08E000601CA22DB5
:102B4200A32DA52DCE17A72D7F30CE056008D0006E
:102B52000310500CCF005908CF04512C08008312E7
:102B620003132308B0008030B0052308A80028070B
:102B7200B200A21FBD2DBE2DBF2D32143208031983
:102B8200C32DC42DD42D320A031DC82DC92DD12D1C
:102B92000030A3000030A2000030A1000030A000ED
:102BA200A217A301DC2D0030A3000030A2000030E8
:102BB200A1000030A0002708B1008030B105310823
:102BC20030060319E52DE62DE72D30172708A8005A
:102BD2002807B100A61FEE2DEF2DF02D311431087C
:102BE2000319F42DF52D052E310A031DF92DFA2DA9
:102BF200022E0030A7000030A6000030A5000030F1
:102C0200A400A617A7010D2E0030A7000030A600D1
:102C12000030A5000030A400320831020318122E41
:102C2200132E372E301F162E172E192E8030B00677
:102C32003208B3003108B2003308B1002008B300F3
:102C42002408A0003308A4002108B3002508A1002D
:102C52003308A5002208B3002608A2003308A60004
:102C62002308B3002708A3003308A700B3013108E3
:102C7200A800A9012908AB0032082802AA00031CF7
:102C8200AB032B08803AFF0080307F02031D4B2EDE
:102C92001A302A02031C4E2E4F2E842E8312031347
:102CA2002308220421042004031D582E5A2E013029
:102CB2005B2E0030B3000030A3000030A2000030D1
:102CC200A1000030A0003108B2008C2E331C6A2E05
:102CD2006B2E722E3308A8000310280C0138B300A3
:102CE200742E0310B30C201C772E782E792EB31776
:102CF2000130A800230DA30CA20CA10CA00CA80B60
:102D02007B2E0130B2078312031331083202031CF7
:102D12008B2E8C2E672E301B8F2E902ED72E3208A4
:102D2200031D942E952E9E2E0030A3000030A2008B
:102D32000030A1000030A000FF2F2408A0072508C2
:102D420003110318013E0319A72EA1072608031138
:102D52000318013E0319AE2EA20727080311031818
:102D6200013E0319B52EA307231CB82EB92E8B2FB3
:102D7200331CBC2EBD2EC42E3308A8000310280C11
:102D82000138B300C62E0310B30C201CC92ECA2E64
:102D9200CB2EB3170130A800230DA30CA20CA10C5B
:102DA200A00CA80BCD2E0130B2078B2F2308803A3E
:102DB200FF002708803A7F02031DE92E260822021F
:102DC200031DE92E25082102031DE92E24082002F5
:102DD2000318EC2EED2E442FFF30A800FF30A9007F
:102DE200FF30AA00FF30AB002408AC002508AD007C
:102DF2002608AE002708AF002008AC022108031CF9
:102E0200210F042F052FAD022208031C220F0A2FC7
:102E12000B2FAE022308031C230F102F112FAF021A
:102E22002C08A8072D0803182D0F182F192FA907F2
:102E32002E0803182E0F1E2F1F2FAA072F08031864
:102E42002F0AAB072B08A3002A08A2002908A10019
:102E52002808A0008030B0063303FF3AB3003308DD
:102E6200031D342F352F522F0130A00700300318D5
:102E72000130A107003003180130A2070030031807
:102E82000130A307522F2408A0022508031C250F96
:102E9200A1022608031C260FA2022708031C270FE3
:102EA200A3022308220421042004031D592F5A2FB0
:102EB200872F3308031D5E2F5F2F872F0030A3005B
:102EC2000030A2000030A1000030A000FF2F01302E
:102ED200A8000310A00DA10DA20DA30DA80B6A2F2F
:102EE200B31F742F752F762F2014331C792F7A2F4E
:102EF2007E2F0314330DB300802F0310B30D32085D
:102F02000319842F852F872F0130B202A21F8A2F27
:102F12008B2F682FB101B31F8F2F902F9E2F330855
:102F22007F390319952F962F992F0130B1009E2FCB
:102F3200201C9C2F9D2F9E2F962F31080319A22F04
:102F4200A32FD52F0130A007003003180130A107AD
:102F5200003003180130A207003003180130A30724
:102F6200231CB42FB52FD52F2008A8002108A900B3
:102F72002208AA002308AB000130AC002B0DAB0CD9
:102F8200AA0CA90CA80CAC0BBF2F2B08A3002A0873
:102F9200A2002908A1002808A000320A0319D22F92
:102FA200D32FD52F0130B207320A0319D92FDA2FC6
:102FB200DF2F3208031DDE2FDF2FED2F0030A3009D
:102FC2000030A2000030A1000030A0003208031D32
:102FD200EB2FEC2FED2FB001321CF02FF12FF32F3E
:102FE200A217F52F7F30A2053208A8000310280C83
:102FF200A300B01FFD2FFE2FFF2FA3170800FF1BFA
:103002000A2883137F1883170008840A0319FF0A0A
:10301200080018308A000408840A820700345334F6
:1030220069347334743465346D34613420346934F2
:103032006E34693463346934613464346F342034F7
:103042002D342034503457344D34203463346F34AB
:103052007234723465346734693464346F340A34D8
:10306200003454343A3425342E34313466340A343C
:10307200003446343A3430340A34003446343A3474
:1030820031340A34003453343A3441340A3400348B
:1030920053343A3443340A34003469346E34663477
:0A30A20000346E3461346E340034E3
:1038CC0083160313061401178B100B160800F40053
:1038DC00831203130C1E732C742C6E2C7408990019
:1038EC000800831603174A08031D7D2C7E2C812C9F
:1038FC000130CA00822CCA0108008E3083160313D3
:10390C009F004130831203139F0083160313051489
:10391C0008008316031387170713193099002430F6
:10392C00980090308312031398000800F40074037D
:10393C00031DA12CA22CA72C13308312031395006A
:10394C00AB2C0C3083120313950008008312031365
:10395C00A31BB12CB22CB32CC22C2009A000210922
:10396C00A1002209A2002309A300A00A0319A10A9D
:10397C000319A20A0319A30A08007408F6000130FF
:10398C00F507FF30750784000A168A150A200A16F7
:10399C008A15FF007608F60A84007F0883178000DA
:1039AC000008031DDA2CDB2CC52C08008312031332
:1039BC0092019101F93083160313920007118312BF
:1039CC00031307110C3097000C3095000430920053
:1039DC000D30F500FB30F400F40BF22CF50BF22C4F
:1039EC00F72C0800831203132108F6002008F500B9
:1039FC000C2D7608840083170008F4000130F607BC
:103A0C0075088400740880000130F5070130A202AB
:103A1C000030031CA303A302220A031D192D230A41
:103A2C00031D192D1A2DFF2C0800831603136B0888
:103A3C00ED002D2D6908DD006A08DE00ED30DF0099
:103A4C006C08E0000A128A153F200A168A158316A4
:103A5C0003136D0884000A168A150A200A168A15A3
:103A6C00003A031D3A2D3B2D202DE901EA010800F7
:103A7C00803083120313CB064F08A3004E08A2001C
:103A8C004D08A1004C08A0004B08A7004A08A6004E
:103A9C004908A5004808A4000A168A11B0250A1680
:103AAC008A15831203132308CB002208CA002108AD
:103ABC00C9002008C8000800772D7608FF0075089B
:103ACC0084000A168A1500200A168A150A168A1509
:103ADC006D240A168A150130F5070318F60A003012
:103AEC00F607760883120313FF00750884000A1684
:103AFC008A1500200A168A15003A031D862D872D7B
:103B0C00632D0800F401F50183120313201C8F2D83
:103B1C00902D962D2208F4070318F50A2308F507B3
:103B2C0001300310A20DA30DFF3E031D972D013094
:103B3C000310A10CA00CFF3E031D9E2D2008210498
:103B4C00031DA92DAA2D8A2D7508A1007408A000AB
:103B5C00080083120313A600A201A3017408A0009D
:103B6C00A1012008A4002108A500261CBE2DBF2DF4
:103B7C00C52D2408A2070318A30A2508A3070130A2
:103B8C000310A40DA50DFF3E031DC62D0310A60C9E
:103B9C002608031DD22DD32DBB2D2308F50022089A
:103BAC00F400080083120313B101B201F52D3008A3
:103BBC00F400F5017408A0007508A1002E08A200FD
:103BCC002F08A3000A168A11FB200A168A15013049
:103BDC0083120313B1070318B20A0030B20731087D
:103BEC002D07F4007408840083170008B000300817
:103BFC00031D012E022EDD2D0800923083160317B3
:103C0C009600100897000130980099019A01A001C4
:103C1C00A101973083160313E9000130EA008316E3
:103C2C000317110883160313EB009630EC000A16E9
:103C3C008A151B250A168A158316031719081007EF
:103C4C0083160313EE006E088400831780010800AE
:103C5C00423083120313CB004830CA000030C90035
:103C6C000030C80083160317430883120313CF00D8
:103C7C0083160317420883120313CE00831603170F
:103C8C00410883120313CD008316031740088312D7
:103C9C000313CC000A168A119B210A168A150318E5
:103CAC00582E592E5E2E013083160317C900612E33
:103CBC0083160317C9010800003083120313200573
:103CCC00A80000302105A90080302205AA007F3011
:103CDC002305AB002B082A0429042804031D772E86
:103CEC00782E802E0030A3000030A2000030A100FE
:103CFC000030A00000302405A80000302505A900E4
:103D0C0080302605AA007F302705AB002B082A043B
:103D1C0029042804031D932E942E9C2E0030A700FA
:103D2C000030A6000030A5000030A40027082306B0
:103D3C00031DAA2E26082206031DAA2E25082106DD
:103D4C00031DAA2E240820060319AD2EAE2EB02E6C
:103D5C000310B12E0314080083120313A701A8014A
:103D6C00240884008313000884000A168A150A208C
:103D7C000A168A152A3A031DC42EC52EF42E2408C1
:103D8C008400013080072508840083170008FF0099
:103D9C00023080077F0884000008A700840A00080E
:103DAC00A800052F2808A1002708A0000A30A200AF
:103DBC000030A3000A168A1588250A168A15831264
:103DCC00031326082007A700003003180130210731
:103DDC00A800240884000130831380072408840081
:103DEC00000884000A168A150A200A168A15D03E85
:103DFC00A6000A302602031C042F052FD82E2808F3
:103E0C00A5002708A4000800031083120313220D39
:103E1C00230DF5007508031D142F152F1E2F0030D0
:103E2C00A3000030A2000030A1000030A0007F2FC2
:103E3C002008A4002108A5002208A6002308A7003A
:103E4C001F300310A70CA60CA50CA40CFF3E031DE1
:103E5C00272F2408F400A217FF30A005FF30A1057E
:103E6C00FF30A2050030A3059630F502F51F3F2F59
:103E7C00402F582F7508803A973E0318462F472F2E
:103E8C00482F152F01300310A30CA20CA10CA00C71
:103E9C00FF3E031D492F0130F507031D562F572FE9
:103EAC00482F6F2F20307502031C5D2F5E2F6A2F59
:103EBC00152F0130A4000310A00DA10DA20DA30D10
:103ECC00A40B612F0130F5027508031D6E2F6F2FA7
:103EDC005F2F74080319732F742F7F2FA009A1096A
:103EEC00A209A309A00A0319A10A0319A20A03191A
:103EFC00A30A0800033083120313E7009730E6008F
:103F0C00E60B862FE70B862F831203131F151F1941
:103F1C00902F912F8D2F1E08ED00831603131E0872
:103F2C0083120313EC004030B100A030B00000301D
:103F3C00AF000030AE006C08A0006D08A10000308E
:103F4C00A11BFF30A200A30001300A168A113F22E8
:103F5C000A168A15831203132308B5002208B4002D
:103F6C002108B3002008B2000A128A154A210A1649
:103F7C008A15831203133108EB003008EA002F086E
:103F8C00E9002E08E8004430CB008030CA00003035
:103F9C00C9000030C8004230B100C830B000003059
:103FAC00AF000030AE006B08B5006A08B4006908B9
:103FBC00B3006808B2000A128A154A210A168A153B
:103FCC00831203133108CF003008CE002F08CD0028
:103FDC002E08CC000A168A11E6230A168A158312BB
:103FEC0003134B08E5004A08E4004908E3004808BD
:043FFC00E2000800D7
:02400E00723FFF
:00000001FF
